:020000040800F2
:100000008068012489030008813B0008793B0008CF
:100010007D3B000827060008A14100080000000001
:100020000000000000000000000000001900009027
:100030002B060008000000007500009081400008B9
:10004000A3030008A3030008A3030008A3030008F8
:10005000A3030008A3030008A3030008A3030008E8
:10006000A3030008A3030008A3030008A3030008D8
:10007000A3030008A3030008A3030008A3030008C8
:10008000A3030008A3030008A3030008A3030008B8
:10009000A3030008A3030008A30300088F15009022
:1000A000A3030008F92E0090A3030008A30300088F
:1000B000A3030008A3030008A3030008A303000888
:1000C000A3030008A3030008A3030008A303000878
:1000D000A303000891410008A3030008A30300083C
:1000E000A3030008A303000800000000A303000806
:1000F000A3030008A3030008A3030008A303000848
:10010000A3030008A3030008A3030008A303000837
:10011000A3030008A3030008A3030008A303000827
:10012000A3030008A3030008A3030008A303000817
:10013000A3030008A3030008A3030008A303000807
:1001400000000000000000000000000000000000AF
:10015000A3030008A3030008A3030008A3030008E7
:10016000A3030008A3030008A3030008A3030008D7
:10017000A3030008A3030008A3030008A3030008C7
:10018000A3030008A3030008A3030008A3030008B7
:10019000A3030008A3030008A3030008A3030008A7
:1001A000A3030008A3030008A3030008A303000897
:1001B000A3030008A3030008A3030008A303000887
:1001C000A3030008A3030008A3030008A303000877
:1001D000A3030008A3030008A3030008A303000867
:1001E000A3030008A3030008A3030008A303000857
:1001F000A3030008A3030008A3030008A303000847
:10020000A3030008A3030008A3030008A303000836
:10021000792E0090A3030008A3030008A30300089D
:10022000A3030008A3030008A303000800000000C4
:10023000A3030008A303000800000000A3030008B4
:10024000A3030008A3030008A3030008A3030008F6
:10025000A3030008A3030008A3030008A3030008E6
:10026000A3030008A3030008A3030008A3030008D6
:10027000A3030008A3030008A30300080000000074
:10028000A3030008A3030008A30300080000000064
:1002900000000000A303000800F002F800F064F87A
:1002A0000AA090E8000C82448344AAF10107DA45D1
:1002B00001D100F059F8AFF2090EBAE80F0013F0BF
:1002C000010F18BFFB1A43F001031847B4440000A4
:1002D000D44400000A444FF0000C10F8013B13F026
:1002E000070408BF10F8014B1D1108BF10F8015B8F
:1002F000641E05D010F8016B641E01F8016BF9D182
:1003000013F0080F1EBF10F8014BAD1C0C1B09D1D8
:100310006D1E58BF01F801CBFAD505E014F8016B4A
:1003200001F8016B6D1EF9D59142D6D370470000DC
:100330000023002400250026103A28BF78C1FBD8EE
:10034000520728BF30C148BF0B6070471FB504F08B
:1003500009FA00F0DDF804000020002104F0ECF9B7
:10036000E0601FBD10B510BD00F0DAF81146FFF7D0
:10037000EDFF03F08FFF00F0F8F803B4FFF7F2FF92
:1003800003BC03F02BFF00000948804709480047E1
:10039000FEE7FEE7FEE7FEE7FEE7FEE7FEE7FEE735
:1003A000FEE7FEE704480549054A064B7047000092
:1003B00095400008990200088056012480680124B5
:1003C0008058012480580124704753EA020C00F041
:1003D00069802DE9F04B4FF00006002B1FBFB3FAE8
:1003E00083F503FA05F424FA05F65E4012BF1643BE
:1003F000B2FA82F502FA05F4C5F120051EBF22FA11
:1004000005FC44EA0C04203556EA044C4FEA144437
:1004100018BF641C4FF000084FF00009904271EBC8
:10042000030C39D3002919BFB1FA81F701FA07F695
:10043000B0FA80F700FA07F6C7F120071EBF20FACE
:1004400007FC46EA0C062037B6FBF4FCA7EB0507D1
:10045000103F07F01F0BCBF120060CFA0BFB2CFA18
:1004600006F644BFB3460026202FA4BF5E464FF0D9
:10047000000B5BEA060C08BF4FF0010B19EB0B09F0
:10048000ABFB027C48EB0608C01B06FB02CC0BFB57
:1004900003CC71EB0C01C1E70B46024641464846CE
:1004A000BDE8F08B13B54FF000004FF00001AFF343
:1004B0000080BDE81C4070474FF0000200B51346B5
:1004C00094469646203922BFA0E80C50A0E80C5074
:1004D000B1F12001BFF4F7AF090728BFA0E80C5025
:1004E00048BF0CC05DF804EB890028BF40F8042B1E
:1004F00008BF704748BF20F8022B11F0804F18BF8B
:1005000000F8012B70477047704770477047000034
:100510000048704740560124004870472056012487
:100520007546FFF7F9FFAE4605006946534620F0D1
:100530000700854618B020B5FFF734FFBDE820401E
:100540004FF000064FF000074FF000084FF0000B8F
:1005500021F00701AC46ACE8C009ACE8C009ACE842
:10056000C009ACE8C0098D46704710B50446AFF32A
:1005700000802046BDE81040FFF7FFBE41F6390C71
:10058000C9F2000C604742F6094CC9F2000C604702
:1005900049F2BD4CC9F2030C604749F24D0CC9F257
:1005A000030C604742F2FD6CC9F2000C60474AF24E
:1005B000114CC9F2010C604746F6A12CC9F2010C9E
:1005C000604741F6910CC9F2030C604743F6114CA9
:1005D000C9F2030C604747F2154CC9F2000C6047A2
:1005E00046F69D3CC9F2010C604746F6B55CC9F27F
:1005F000010C604747F2CD3CC9F2030C604747F657
:10060000FD5CC9F2030C604741F2591CC9F2030CAE
:10061000604742F6913CC9F2000C604740F2355CFD
:10062000C9F2000C604700BFFEE770472DE9F041BA
:10063000044600F025FE804614B90120BDE8F08193
:1006400094F83500022808D08020606500BF0020A3
:1006500084F8340000BF0120F0E7FE49206888429A
:1006600049D0FC4918312068884244D0F9493031DA
:10067000206888423FD0F7494831206888423AD004
:10068000F44960312068884235D0F24978312068D9
:10069000884230D0EF499031206888422BD0ED4914
:1006A000A8312068884226D0EB492068884222D0B1
:1006B000E9491831206888421DD0E7493031206867
:1006C000884218D0E44948312068884213D0E24972
:1006D0006031206888420ED0DF4978312068884236
:1006E00009D0DD4990312068884204D0DA49A83128
:1006F0002068884201D1012000E0002068B1206814
:10070000006820F01E00216808602068406920F021
:10071000800021684861256806E02068006820F0B4
:100720000E00216808602568CA492068884270D098
:10073000C8491831206888426BD0C64930312068DA
:10074000884266D0C34948312068884261D0C14997
:100750006031206888425CD0BE4978312068884288
:1007600057D0BC4990312068884252D0B949A8314D
:10077000206888424DD0B8492068884249D0B6499F
:1007800018312068884244D0B3493031206888420B
:100790003FD0B1494831206888423AD0AE496031F3
:1007A0002068884235D0AC4978312068884230D002
:1007B000A9499031206888422BD0A749A8312068E8
:1007C000884226D0A5492068884222D0A349143106
:1007D000206888421DD0A14928312068884218D05D
:1007E0009E493C312068884213D09C495031206892
:1007F00088420ED0994964312068884209D09749CF
:1008000078312068884204D094498C31206888422D
:1008100001D1012000E0002028B1206E006820F402
:100820008070216E08608B492068884249D08949D0
:1008300018312068884244D0864930312068884287
:100840003FD084494831206888423AD0814960319C
:100850002068884235D07F4978312068884230D07E
:100860007C499031206888422BD07A49A831206891
:10087000884226D078492068884222D076491831AB
:10088000206888421DD0744930312068884218D0D1
:10089000714948312068884213D06F49603120681F
:1008A00088420ED06C4978312068884209D06A4964
:1008B00090312068884204D06749A8312068884276
:1008C00006D12068006820F001002168086005E07A
:1008D0002068006820F001002168086011E000F045
:1008E000CFFCA0EB080005280BD920206065032071
:1008F00084F8350000BF002084F8340000BF0120D8
:100900009CE6286800F001000028E8D151492068E1
:10091000884249D04F4918312068884244D04D4917
:100920003031206888423FD04A49483120688842A7
:100930003AD0484960312068884235D045497831FD
:100940002068884230D043499031206888422BD0BB
:100950004049A8312068884226D03F492068884213
:1009600022D03D491831206888421DD03A493031A3
:100970002068884218D0384948312068884213D00E
:1009800035496031206888420ED03349783120687B
:10099000884209D0304990312068884204D02E49DD
:1009A000A8312068884201D1012000E0002040B138
:1009B000A66D94F85C0000F01F013F208840B060F5
:1009C00007E0A76D94F85C0000F01F01012088404B
:1009D000786020492068884276D01E491831206806
:1009E000884271D01B493031206888426CD0194947
:1009F00048312068884267D01649603120688842B3
:100A000062D014497831206888425DD01149903114
:100A10002068884258D00F49A8312068884253D0B6
:100A20000D49206888424FD00B4918312068884210
:100A30004AD0094930312068884245D006494831BA
:100A40002068884240D004496031206888423BD009
:100A5000014905E010000240100402400854025809
:100A60007831206888422FD02549206888422BD0D1
:100A7000234918312068884226D0224920688842BC
:100A800022D020491431206888421DD01D492831C8
:100A90002068884218D01B493C312068884213D016
:100AA00018495031206888420ED0164964312068B8
:100AB000884209D0134978312068884204D011490E
:100AC0008C312068884201D1012000E0002068B10B
:100AD000D4E919104860E06E40B1E06E006820F47F
:100AE0008070E16E0860D4E91C104860012084F831
:100AF000350000BF002084F8340000BF00BF9DE532
:100B0000A00402400854025870B504460CB90120F4
:100B100070BD94F83500022803D080206065012064
:100B2000F6E7DC492068884249D0DA491831206864
:100B3000884244D0D7493031206888423FD0D549D7
:100B40004831206888423AD0D249603120688842D2
:100B500035D0D04978312068884230D0CD499031A5
:100B6000206888422BD0CB49A8312068884226D003
:100B7000C9492068884222D0C74918312068884274
:100B80001DD0C54930312068884218D0C24948314B
:100B90002068884213D0C0496031206888420ED056
:100BA000BD4978312068884209D0BB49903120681E
:100BB000884204D0B849A8312068884201D1012078
:100BC00000E00020F0B3042084F83500B14920682B
:100BD00088424BD0AF4918312068884246D0AD4991
:100BE00030312068884241D0AA4948312068884283
:100BF0003CD0A84960312068884237D0A549783177
:100C00002068884232D0A3499031206888422DD094
:100C1000A049A8312068884228D09F49206888428E
:100C200024D09D491831206888421FD09A4930311C
:100C3000206888421AD0984948312068884215D0E7
:100C4000954900E020E06031206888420ED092494A
:100C500078312068884209D08F49903120688842D5
:100C600004D08D49A8312068884206D120680068E8
:100C700020F001002168086009E12068006820F088
:100C800001002168086002E12068006820F00E0081
:100C9000216808607F492068884249D07D49183121
:100CA0002068884244D07B493031206888423FD058
:100CB00078494831206888423AD0764960312068C6
:100CC000884235D0734978312068884230D07149E4
:100CD0009031206888422BD06E49A8312068884224
:100CE00026D06D492068884222D06B49183120688F
:100CF00088421DD0684930312068884218D0664942
:100D000048312068884213D06349603120688842A6
:100D10000ED0614978312068884209D05E4990310F
:100D20002068884204D05C49A8312068884206D1F6
:100D30002068006820F001002168086005E0206854
:100D4000006820F00100216808605249206888424C
:100D500070D050491831206888426BD04D493031ED
:100D60002068884266D04B4948312068884261D06B
:100D700048496031206888425CD046497831206813
:100D8000884257D0434990312068884252D0414927
:100D9000A831206888424DD03F492068884249D018
:100DA0003D4918312068884244D03B4930312068A1
:100DB00088423FD038494831206888423AD0364985
:100DC00060312068884235D03349783120688842C4
:100DD00030D031499031206888422BD02E49A8313B
:100DE0002068884226D02D492068884222D02B498D
:100DF0001431206888421DD0284928312068884253
:100E000018D026493C312068884213D023495031FC
:100E1000206888420ED0214964312068884209D078
:100E20001E4978312068884204D01C498C312068E2
:100E3000884201D1012000E00020D8B1206E006876
:100E400020F48070216E0860A56D94F85C0000F0BD
:100E50001F01012088406860D4E919104860E06EE5
:100E600040B1E06E006820F48070E16E0860D4E963
:100E70001C104860012084F8350000BF002084F871
:100E8000340000BF206D10B12046216D884700203E
:100E90003EE60000100002401004024008540258D0
:100EA0000348006840F001000149086070470000F5
:100EB00020040058F0B50C460021504B98E0012664
:100EC0008E4006EA0402002A7ED04D4E8F0856F866
:100ED00027508E07370F0F26BE403540494EB0428F
:100EE00001D100262DE0484EB04201D1012628E074
:100EF000464EB04201D1022623E0454EB04201D118
:100F000003261EE0434EB04201D1042619E0424EB2
:100F1000B04201D1052614E0404EB04201D1062670
:100F20000FE03F4EB04201D107260AE03D4EB042ED
:100F300001D1082605E03C4EB04201D1092600E06F
:100F40000A268F073F0FBE40AE421FD11E68964350
:100F50001E605E6896435E604FF0B04676689643CA
:100F60004FF0B0477E603E46366896433E608E073F
:100F7000370F0F2606FA07F5214E8F0856F827601F
:100F8000AE431F4F4FEA910C47F82C6006684FEABA
:100F9000410C032707FA0CF73E430660CF0800F127
:100FA000200656F827604F074FEAD76C0F2707FA3D
:100FB0000CF7BE434FEAD10C00F1200747F82C6034
:100FC000C6684FEA410C00E011E0032707FA0CF76E
:100FD000BE43C660476801268E40B74347608668B7
:100FE0004FEA410C032707FA0CF7BE438660491C01
:100FF00024FA01F6002E7FF462AFF0BD80000058A5
:101000000804005800000258000402580008025862
:10101000000C025800100258001402580018025820
:10102000001C0258002002580024025810B5044643
:1010300004480068204020B1024804602046FFF7C1
:101040009DFA10BD88000058F8B502460B460021F5
:101050006F4DD7E001278F401E6806EA0704002C79
:1010600072D01E7906F00306012E04D01E7906F018
:101070000306022E13D190684F000326BE40B043F2
:101080004F00DE68BE4030439060506801268E40BD
:10109000B0431E79C6F300168E40304350601E796F
:1010A00006F00306032E09D0D0684F000326BE4089
:1010B000B0434F009E68BE403043D0601E7906F0BA
:1010C0000306022E13D1CF0802F1200656F827009E
:1010D0004E07F70E0F26BE40B0434F07FF0E1E69A6
:1010E000BE403043CF0802F1200646F827001068C2
:1010F0004F000326BE40B0431E7906F003064F00A2
:10110000BE40304310605E6806F44036002E78D052
:1011100000BF404E366846F002063E4F3E603E46F7
:10112000366806F00206009600BF00BF3A4E8F08F0
:1011300056F827008E07370F0F26BE40B043374EB4
:10114000B24202D100262EE05BE0354EB24201D120
:10115000012628E0334EB24201D1022623E0324E6E
:10116000B24201D103261EE0304EB24201D1042624
:1011700019E02F4EB24201D1052614E02D4EB242A5
:1011800001D106260FE02C4EB24201D107260AE01B
:101190002A4EB24201D1082605E0294EB24201D1C1
:1011A000092600E00A268F073F0FBE4030431A4E43
:1011B0008F0846F827004FF0B0463068A0435E68BD
:1011C00006F4801606B120434FF0B04630607068D8
:1011D000A0435E6806F4001606B120434FF0B04607
:1011E00070606868A0435E6806F4003606B120436C
:1011F00068602868A0435E6806F4803606B1204324
:101200002860491C1E68CE40002E7FF423AFF8BD35
:1012100080000058F44402580804005800000258A6
:101220000004025800080258000C0258001002582E
:101230000014025800180258001C025800200258DE
:1012400000240258024613690B400BB1012000E054
:101250000020704710B5426921EA020302EA010446
:1012600043EA0443836110BD0AB1816101E00B04CC
:101270008361704701480068000C70470010005CF3
:1012800001480068704700002800002403480068F7
:101290000349097808440149086070472800002480
:1012A0003000002410B5032000F00EF901F02CFEF0
:1012B00010490968C1F303210F4A515C01F01F0175
:1012C00020FA01F40B48006800F00F001146085C9A
:1012D00000F01F0024FA00F0084908600848046084
:1012E0000F2000F00FF808B1012010BD00F09AF8AF
:1012F0000020FAE7184402586E4700080400002452
:101300000000002470B504461148007808B9012097
:1013100070BD0F4800784FF47A71B1FBF0F00D49C1
:101320000968B1FBF0F5284602F04EFB08B1012038
:10133000EEE7102C07D200222146501E00F087F85D
:101340000548046001E00120E2E70020E0E700003A
:1013500030000024000000242C0000244178154AAD
:1013600011600178F9B1121D41681160017B090714
:10137000C27A41EA0261827A41EAC241427B41EA91
:101380008241827B41EA4241C27B41EA0241427A88
:1013900041EA0221027A41EA420102781143054AF8
:1013A0000832116005E00021024A121D1160121D71
:1013B0001160704798ED00E000BF00BF00BFBFF3B1
:1013C0005F8F00BF00BF00BF0548006820F4803079
:1013D000034908600020024970310860704700002E
:1013E00024ED00E040F001010D4A11600C49703914
:1013F000096841F480310A4A703A116000BF00BFA9
:1014000000BFBFF34F8F00BF00BF00BF00BF00BFD2
:1014100000BFBFF36F8F00BF00BF00BF7047000069
:1014200094ED00E070470146084600280DDB00BF40
:1014300000BF00F01F0301229A4043099B0003F103
:10144000E023C3F8002100BF00BF00BF70472DE9B3
:10145000F05F80460D46164602F0A4FE0746394668
:101460002A46334601F00700C0F1070ABAF1040F1B
:1014700002D94FF0040A01E0C0F1070AD14600F199
:10148000040ABAF1070F02D24FF0000A01E0A0F1FE
:10149000030AD4464FF0010A0AFA09FAAAF1010A2E
:1014A0000AEA020A0AFA0CFA4FF0010B0BFA0CFBDB
:1014B000ABF1010B0BEA030B4AEA0B042146404651
:1014C00002F078FEBDE8F09F00BF00F00702064B77
:1014D00019684FF6FF031940044B0B4343EA0221FE
:1014E000014B196000BF70470CED00E00000FA05E9
:1014F00070B5044615480068C0F3800048B9134829
:10150000006800F00700A04201D0012070BD00205B
:10151000FCE70E48006820F0070020430B490860F4
:10152000FFF7AEFE054607E0FFF7AAFE401BB0F549
:101530007A7F01D90120E9E7044808380068C0F340
:1015400040300028F0D00020E0E700000C480258AE
:101550002DE9F84304460E4615469846FFF790FEDF
:101560008146B06900B100BFF06900B100BF306AC8
:1015700000B100BF00BF94F84000012802D1022052
:10158000BDE8F883012084F8400000BF94F84100D2
:1015900001283AD100206064422084F841004B4683
:1015A000002220212046CDF8008002F0DEFB074615
:1015B00057BB286821688862686821684862A86803
:1015C0002168C8622068006820F44000296941F45D
:1015D0008001084321680860E868B0624FF000624B
:1015E0003146204602F0CDFA4B4601220821204622
:1015F000CDF8008002F0B9FB07462FB9082021681A
:10160000C860012084F8410000E0022700BF0020EC
:1016100084F8400000BF3846B2E72DE9F84304469D
:101620000D461746FFF72CFE8046A86900B100BFA3
:10163000E86900B100BF286A00B100BF00BF94F89C
:101640004000012802D10220BDE8F883012084F87F
:10165000400000BF94F84100012828D100206064B8
:10166000022084F8410043460022202120460097B2
:1016700002F07BFB0646DEB900222946204602F036
:1016800080FA686A78B94346012202212046009711
:1016900002F06BFB06465EB902202168C86001209B
:1016A00084F8410004E0012084F8410000E00226B3
:1016B00000BF002084F8400000BF3046C4E710B5EA
:1016C00004460CB9012010BD2068006820F001001C
:1016D00021680860204600F0B5F80020606484F8B6
:1016E000410000BFEFE70000F8B50446FFF7C8FD72
:1016F00006460CB90120F8BD206A402800D000BF82
:1017000094F8410038B9204600F0B8F841F2883129
:10171000204600F027F92068006820F4F851A068FE
:10172000401E41EA002021680860A06C3346002278
:1017300020210090204602F018FB054635BB217998
:10174000E06840EA0160E1690843216A08432168D2
:1017500009680F4A1140084321680860208A6169BE
:1017600041EA0040A169084321684968094A1140DB
:101770000843216848602068006840F00100216843
:10178000086000206064012084F841002846B2E728
:101790002FFFFF00FEF8E0FF2DE9F84304460D4659
:1017A0001646FFF76DFD8046A86900B100BFE869E5
:1017B00000B100BF286A00B100BF00BF94F840002C
:1017C000012802D10220BDE8F883012084F84000FE
:1017D00000BF94F8410001282CD1002060648220D1
:1017E00084F84100A06C434600222021009020464E
:1017F00002F0BBFA0746F7B92068006820F008003D
:101800007168084321680860706808280BD1306847
:101810002168086310202168C8602068006840F4CF
:101820008010216808604FF040622946204602F08F
:10183000A8F900E0022700BF002084F8400000BFA4
:101840003846C0E710B504460949206888420ED1E1
:101850000848006820F48040064908604421064892
:10186000FFF728FB4FF470710348FFF723FB10BD0F
:1018700000500052D44402580004025810B586B0FB
:10188000044633492068884260D13248D0E90010CC
:101890004FF0007319432F4AC2E90010002011468F
:1018A000C864084600F0A2FA00BF2B48006840F464
:1018B0008040294908600846006800F48040009094
:1018C00000BF00BF00BF24480C30006840F0020099
:1018D00021490C3108600846006800F002000090C1
:1018E00000BF00BF00BF0846006840F0200008604D
:1018F0000846006800F02000009000BF00BF4020B4
:1019000001900220029003200490012003900A20FD
:10191000059001A91148FFF797FB042001900920C9
:10192000059001A90D48FFF78FFBC0200190092009
:10193000059001A90A48FFF787FB4FF4407001901A
:101940000A20059001A90648FFF77EFB06B010BDEE
:101950000050005230030024D444025800040258BE
:10196000001402588164704710B501F083FA0549EC
:101970000968C1F30211044A515C01F01F01C8401B
:1019800010BD0000204402586E47000870B50146A3
:10199000844D2D6805F00303824D2D68C5F3053095
:1019A000804D2D1D2D68C5F300147E4D14352D6816
:1019B000C5F3CC0515FB04F501EE105AB8EE411A3B
:1019C000F0EE410A00286FD023B1012B4ED0022B3C
:1019D0006BD16BE0734D283D2D68C5F340153DB3C9
:1019E000704D283D2D68C5F3C1066F4D25FA06F2EE
:1019F00001EE102AF8EE411A01EE100AB8EE411A73
:101A000081EE812A9FED691AC0EE811A654D10356D
:101A10002D68C5F3080501EE105AB8EE411A31EEF3
:101A2000811AF7EE001A31EE211A22EE010A1CE0AB
:101A300001EE100AB8EE411ADFED5D1A81EE812A3F
:101A40009FED5A1AC0EE811A564D10352D68C5F318
:101A5000080501EE105AB8EE411A31EE811AF7EE80
:101A6000001A31EE211A22EE010A5BE001EE100AA3
:101A7000B8EE411ADFED4F1A81EE812A9FED4B1A25
:101A8000C0EE811A474D10352D68C5F3080501EEEB
:101A9000105AB8EE411A31EE811AF7EE001A31EE03
:101AA000211A22EE010A3DE077E01DE001EE100A66
:101AB000B8EE411A9FED402AC2EE011A9FED3B1A83
:101AC00080EE812A374D10352D68C5F3080501EEEB
:101AD000105AB8EE411A32EE011AB7EE002A31EE72
:101AE000021A21EE810A1DE001EE100AB8EE411A39
:101AF000DFED301A81EE812A9FED2C1AC0EE811A9B
:101B0000284D10352D68C5F3080501EE105AB8EEC2
:101B1000411A31EE811AF7EE001A31EE211A22EE47
:101B2000010A00BF00BF1F4D10352D68C5F34625C3
:101B300001EE105AB8EE411AF7EE001A31EE211AF2
:101B4000C0EE011ABCEEE11A81ED001A154D1035F8
:101B50002D68C5F3064501EE105AB8EE411AF7EEAE
:101B6000001A31EE211AC0EE011ABCEEE11A81ED25
:101B7000011A0C4D10352D68C5F3066501EE105A9B
:101B8000B8EE411AF7EE001A31EE211AC0EE011A32
:101B9000BCEEE11A81ED021A03E000250D604D60F4
:101BA0008D6070BD284402580090D00300000046AC
:101BB0000024744C0024744A20BCBE4B70B501460E
:101BC000844D2D6805F00303824D2D68C5F3055043
:101BD000804D2D1D2D68C5F300247E4D1C352D68CC
:101BE000C5F3CC0515FB04F501EE105AB8EE411A09
:101BF000F0EE410A00286FD023B1012B4ED0022B0A
:101C00006BD16BE0734D283D2D68C5F340153DB396
:101C1000704D283D2D68C5F3C1066F4D25FA06F2BB
:101C200001EE102AF8EE411A01EE100AB8EE411A40
:101C300081EE812A9FED691AC0EE811A654D183533
:101C40002D68C5F3080501EE105AB8EE411A31EEC1
:101C5000811AF7EE001A31EE211A22EE010A1CE079
:101C600001EE100AB8EE411ADFED5D1A81EE812A0D
:101C70009FED5A1AC0EE811A564D18352D68C5F3DE
:101C8000080501EE105AB8EE411A31EE811AF7EE4E
:101C9000001A31EE211A22EE010A5BE001EE100A71
:101CA000B8EE411ADFED4F1A81EE812A9FED4B1AF3
:101CB000C0EE811A474D18352D68C5F3080501EEB1
:101CC000105AB8EE411A31EE811AF7EE001A31EED1
:101CD000211A22EE010A3DE077E01DE001EE100A34
:101CE000B8EE411A9FED402AC2EE011A9FED3B1A51
:101CF00080EE812A374D18352D68C5F3080501EEB1
:101D0000105AB8EE411A32EE011AB7EE002A31EE3F
:101D1000021A21EE810A1DE001EE100AB8EE411A06
:101D2000DFED301A81EE812A9FED2C1AC0EE811A68
:101D3000284D18352D68C5F3080501EE105AB8EE88
:101D4000411A31EE811AF7EE001A31EE211A22EE15
:101D5000010A00BF00BF1F4D18352D68C5F3462589
:101D600001EE105AB8EE411AF7EE001A31EE211AC0
:101D7000C0EE011ABCEEE11A81ED001A154D1835BE
:101D80002D68C5F3064501EE105AB8EE411AF7EE7C
:101D9000001A31EE211AC0EE011ABCEEE11A81EDF3
:101DA000011A0C4D18352D68C5F3066501EE105A61
:101DB000B8EE411AF7EE001A31EE211AC0EE011A00
:101DC000BCEEE11A81ED021A03E000250D604D60C2
:101DD0008D6070BD284402580090D003000000467A
:101DE0000024744C0024744A20BCBE4B2DE9F04101
:101DF00004460025A8464FF00062D4E900101140C7
:101E00000020134659404040014331D1A06E48B1F3
:101E1000B0F5801F0DD0B0F5001F11D0B0F5401FF8
:101E200016D114E0F948006840F40030F749086022
:101E300010E0022104F1080001F0BEFF054609E0B0
:101E4000022104F1280002F069F8054602E001E0F1
:101E5000012500BF00BF55B9EC482430006820F4CC
:101E60004010A16E0843E9492431086000E0A8460B
:101E70004FF48073D4E900101940002059404040CD
:101E800001432ED1A06D05281BD2DFE800F0030A24
:101E900011181900DD48006840F40030DB49086083
:101EA00011E0002104F1080001F086FF05460AE078
:101EB000002104F1280002F031F8054603E002E0B9
:101EC00001E0012500BF00BF55B9D04824300068AB
:101ED00020F00700A16D0843CC492431086000E0E0
:101EE000A8464FF40073D4E900101940002059406F
:101EF0004040014334D1E06D802818D003DC40B16C
:101F000040281DD10CE0C02818D0B0F5807F17D133
:101F100015E0BE48006840F40030BC49086011E09C
:101F2000002104F1080001F047FF05460AE0002106
:101F300004F1280001F0F2FF054603E002E001E0B1
:101F4000012500BF00BF55B9B0482430006820F417
:101F5000E070E16D0843AD492431086000E0A84617
:101F60004FF48063D4E900101940002059404040EC
:101F7000014339D1D4F8A800B0F5800F1AD004DCA1
:101F800050B1B0F5001F1ED10DE0B0F5C00F18D054
:101F9000B0F5000F17D115E09C48006840F4003000
:101FA0009A49086011E0002104F1080001F004FFE3
:101FB00005460AE0002104F1280001F0AFFF0546C4
:101FC00003E002E001E0012500BF00BF5DB98F48DA
:101FD0002C30006820F46000D4F8A81008438B4926
:101FE0002C31086000E0A8464FF40062D4E90010EC
:101FF00011400020134659404040014339D1D4F8E4
:10200000AC00B0F1007F1AD004DC50B1B0F1807F99
:102010001ED10DE0B0F1407F18D0B0F1806F17D124
:1020200015E07A48006840F400307849086011E013
:10203000002104F1080001F0BFFE05460AE000217E
:1020400004F1280001F06AFF054603E002E001E028
:10205000012500BF00BF5DB96C482C30006820F03E
:10206000E060D4F8AC10084368492C31086000E007
:10207000A8464FF00073D4E90001184000215840F1
:102080004940084328D1E06CA8B1102804D020288A
:1020900009D0302810D10DE05C48006840F40030D1
:1020A0005A4908600AE0022104F1080001F084FEA8
:1020B000054603E002E001E0012500BF00BF55B97D
:1020C00052482030006820F03000E16C08434F494E
:1020D0002031086000E0A8464FF48053D4E9001096
:1020E0001940002059404040014337D1206EB0F5DF
:1020F000005F1AD004DC50B1B0F5805F1ED10DE056
:10210000B0F5405F18D0B0F5804F17D115E03F48CB
:10211000006840F400303D49086011E0002104F1FE
:10212000080001F049FE05460AE0002104F12800FC
:1021300001F0F4FE054603E002E001E0012500BFE6
:1021400000BF55B931482430006820F4E040216ECA
:1021500008432E492431086000E0A8464FF400539C
:10216000D4E900101940002059404040014335D1C6
:10217000606EB0F5403F1ED007DC68B1B0F5803F1F
:102180000BD0B0F5003F19D10EE0B0F5802F13D081
:10219000B0F5A02F12D110E012E0012104F10800E7
:1021A00001F00AFE05460BE0012104F1280001F0D0
:1021B000B5FE054604E003E002E001E0012500BFB2
:1021C00000BF55B911482430006820F4E020616E4A
:1021D00008430E492431086000E0A8464FF48043CC
:1021E000D4E900011840002158404940084337D144
:1021F000D4F8B000B0F1405F20D009DC78B1B0F184
:10220000805F0DD0B0F1005F1BD110E02C4402586C
:10221000B0F1804F13D0B0F1A04F12D110E012E016
:10222000012104F1080001F0C7FD05460BE0012182
:1022300004F1280001F072FE054604E003E002E02C
:1022400001E0012500BF00BF4DB9FE48006820F045
:10225000E040D4F8B0100843FA49086000E0A8460E
:102260004FF40042D4E900101140002013465940B9
:102270004040014329D1206FB0B1B0F1805F03D05D
:10228000B0F1005F11D108E0EE482C38006840F44E
:102290000030EC492C39086009E0012104F1080004
:1022A00001F08AFD054602E001E0012500BF00BF04
:1022B00055B9E4480838006820F04050216F0843C1
:1022C000E0490839086000E0A8464FF08072D4E980
:1022D00000101140002013465940404001432AD1CC
:1022E000A06CB8B1012804D002280BD0032812D169
:1022F0000FE0D4482C38006840F40030D1492C3924
:1023000008600AE0022104F1080001F055FD0546CD
:1023100003E002E001E0012500BF00BF55B9C94854
:102320000C38006820F00300A16C0843C5490C3943
:10233000086000E0A8464FF48002D4E90001104094
:10234000002113465840494008437DD1BE480068EB
:1023500040F48070BC490860FEF792FF064606E034
:10236000FEF78EFF801B642801D9032505E0B648DF
:10237000006800F480700028F2D000BF85BBB1482F
:102380001830006800F44070B4F8B41001F44071E3
:10239000884213D0AB481830006820F44077A94831
:1023A0001830006840F48030A649183108600846AB
:1023B000006820F48030086008460760D4F8B40054
:1023C000B0F5807F15D1FEF75BFF064609E0FEF70A
:1023D00057FF801B41F28831884202D9032507E06C
:1023E00038E0984818300068C0F340000028EED06C
:1023F00000BF55BB00BFB4F8B40000F44070B0F5A6
:10240000407F0ED18F484838006820F47C518F4AB5
:10241000D4F8B400104041EA10108A4948390860E5
:1024200007E088484838006820F47C5085494839DE
:102430000860844818300068B4F8B410C1F30B0188
:1024400008438049183101E005E001E0086002E03E
:10245000A84600E0A8460122D4E90001104000216E
:10246000134658404940084330D1E06F18281AD02D
:1024700005DC48B1082808D0102817D10CE0202826
:1024800012D0282812D110E012E0012104F1080036
:1024900001F092FC05460BE0012104F1280001F057
:1024A0003DFD054604E003E002E001E0012500BF38
:1024B00000BF55B96348001F006820F03800E16F85
:1024C00008436049091F086000E0A8460222D4E9D9
:1024D000000110400021134658404940084329D1CB
:1024E000A06F062816D2DFE800F003040B121314C5
:1024F00012E0012104F1080001F05EFC05460BE04A
:10250000012104F1280001F009FD054604E003E083
:1025100002E001E0012500BF00BF55B94948001F96
:10252000006820F00700A16F08434649091F0860B2
:1025300000E0A8460423D4E90010194000205940C7
:102540004040014329D1D4F89400062816D2DFE890
:1025500000F003040B12131412E0012104F108002F
:1025600001F02AFC05460BE0012104F1280001F0EE
:10257000D5FC054604E003E002E001E0012500BFD0
:1025800000BF4DB92F48006820F00700D4F8941020
:1025900008432C49086000E0A8462023D4E9000144
:1025A0001840002158404940084337D1D4F89000E2
:1025B000B0F1405F1ED007DC68B1B0F1805F0BD096
:1025C000B0F1005F19D10EE0B0F1804F13D0B0F13F
:1025D000A04F12D110E012E0002104F1080001F038
:1025E000EBFB05460BE0022104F1280001F096FC0C
:1025F000054604E003E002E001E0012500BF00BF62
:102600005DB91048001F006820F0E040D4F8901039
:1026100008430C49091F086000E0A8464023D4E99C
:102620000010194000205940404001433CD1D4F8EB
:102630009C00B0F5406F25D00EDCA0B1B0F5806FE6
:1026400012D005E05844025800480258FFFCFF0F22
:10265000B0F5006F19D10EE0B0F5805F13D0B0F582
:10266000A05F12D110E012E0002104F1080001F097
:10267000A3FB05460BE0022104F1280001F04EFC0B
:10268000054604E003E002E001E0012500BF00BFD1
:102690004DB9FE48006820F4E050D4F89C1008437F
:1026A000FA49086000E0A8468023D4E900101940E8
:1026B000002059404040014335D1D4F8A000B0F586
:1026C000C04F1ED007DC68B1B0F5005F0BD0B0F58D
:1026D000804F19D10EE0B0F5004F13D0B0F5204F68
:1026E00012D110E012E0002104F1080001F064FBB7
:1026F00005460BE0022104F1280001F00FFC05461D
:1027000004E003E002E001E0012500BF00BF4DB995
:10271000DE48006820F46040D4F8A0100843DB498C
:10272000086000E0A8460823D4E900101940002002
:1027300059404040014317D1D4F88400B0F5805F80
:1027400007D1022104F1280001F0E8FB08B14FF0A5
:102750000108CE48001F006820F44050D4F88410CF
:102760000843CA49091F08601023D4E90010194022
:10277000002059404040014315D1D4F89800B0F5ED
:10278000807F07D1022104F1280001F0C7FB08B1C6
:102790004FF00108BD48006820F44070D4F898104C
:1027A0000843BA4908604FF40022D4E90001104000
:1027B0000021134658404940084327D1D4F8A400CB
:1027C00030B1B0F5803F0AD0B0F5003F0FD10DE039
:1027D000002104F1080001F0EFFA054609E00221AA
:1027E00004F1280001F09AFB054602E001E0012512
:1027F00000BF00BF4DB9A548006820F44030D4F8B0
:10280000A4100843A149086000E0A8464FF48023C3
:10281000D4E90001184000215840494008432DD117
:10282000D4F88800B0F5801F06D0B0F5001F0CD09A
:10283000B0F5401F11D10FE094482C38006840F4E7
:10284000003092492C39086009E0012104F1280088
:1028500001F064FB054602E001E0012500BF00BF76
:102860005DB98A48001F006820F44010D4F8881031
:1028700008438649091F086000E0A8464FF48032EB
:10288000D4E9000110400021134658404940084354
:1028900025D1206D18B1B0F5803F10D108E07B48FC
:1028A0002C38006840F4003078492C39086008E082
:1028B000022104F1080001F07FFA054601E001253C
:1028C00000BF00BF55B971480C38006820F4803053
:1028D000216D08436D490C39086000E0A8464FF0AF
:1028E0000052D4E9001011400020134659404040E6
:1028F000014307D1022104F1280001F00FFB08B1C8
:102900004FF001084FF40033D4E9000118400021D2
:1029100058404940084329D1D4F88000A0B1B0F50F
:10292000807F06D0B0F5007F0CD0B0F5407F0CD191
:1029300009E056482C38006840F4003053492C39DF
:10294000086004E003E002E001E0012500BF00BFF1
:102950005DB94E48001F006820F44070D4F8801024
:1029600008434A49091F086000E0A8464FF4801256
:10297000D4E9001011400020134659404040014363
:1029800009D142480838006820F00040616F0843D0
:102990003E49083908604FF08052D4E900101140D8
:1029A000002013465940404001430AD13748483877
:1029B000006820F48040D4F8B810084333494839FF
:1029C00008604FF40012D4E90010114000201346B3
:1029D00059404040014309D12C480838006820F094
:1029E0008070E16E08432949083908604FF0804241
:1029F000D4E90010114000201346594040400143E3
:102A000011D100BF21484838006820F400401F4918
:102A10004839086008460068D4F8BC1008431B49D0
:102A20004839086000BF4FF00042D4E9001011405F
:102A30000020134659404040014309D113480C3847
:102A4000006820F04050616D084310490C3908605F
:102A50004FF40002D4E90010114000201346594001
:102A6000404001430AD10948001F006820F440009B
:102A7000D4F88C1008430549091F08600123002180
:102A80006068184001224940504001E05844025813
:102A9000014306D104F1080001F08EF9054605B1A5
:102AA000A84602220021606810404940504001437E
:102AB00007D1012104F1080001F07EF9054605B1B6
:102AC000A846042300206168194004224040514078
:102AD000084307D1022104F1080001F06DF9054611
:102AE00005B1A84608230021606818400822494023
:102AF0005040014306D104F1280001F00FFA0546C9
:102B000005B1A8461022002160681040494050409D
:102B1000014307D1012104F1280001F0FFF9054626
:102B200005B1A84620220020616811404040514074
:102B3000084307D1022104F1280001F0EFF905460E
:102B400005B1A846B8F1000F02D10020BDE8F08120
:102B50000120FBE72DE9F04104460D4614B90120A0
:102B6000BDE8F081BD48006800F00F00A8420ED219
:102B7000BA48006820F00F002843B84908600846AA
:102B8000006800F00F00A84201D00120E8E720789B
:102B900000F0040004280ED1B1492069096801F051
:102BA0007001884207D9AE48006820F070002169A2
:102BB0000843AB490860207800F00800082811D1CC
:102BC000A749091D6069096801F07001884209D9A7
:102BD000A348001D006820F0700061690843A04907
:102BE000091D0860207800F01000102811D19C49C0
:102BF000091DA069096801F4E061884209D9984873
:102C0000001D006820F4E060A16908439449091D93
:102C10000860207800F02000202811D19049083168
:102C2000E069096801F07001884209D98C480830D0
:102C3000006820F07000E1690843894908310860A4
:102C4000207800F0020002280ED18549E06809686A
:102C500001F00F01884207D98148006820F00F0079
:102C6000E16808437E490860207800F001000028F0
:102C700050D07B48006820F47060A1680843784910
:102C800008606068022807D1754818380068C0F3EA
:102C90004040F8B9012063E76068032807D1704815
:102CA00018380068C0F34060A0B9012058E7606898
:102CB000012807D16A4818380068C0F3002048B9D5
:102CC00001204DE7664818380068C0F3800008B955
:102CD000012045E762480838006820F00700616875
:102CE00008435F4908390860FEF7CAFA064608E05B
:102CF000FEF7C6FA801B41F28831884201D90320D1
:102D00002EE757480838006800F038006168B0EBDB
:102D1000C10FEDD1207800F0020002280ED15049F9
:102D2000E068096801F00F01884207D24C4800684A
:102D300020F00F00E16808434949086047480068EF
:102D400000F00F00A8420ED94448006820F00F00A0
:102D50002843424908600846006800F00F00A84276
:102D600001D00120FCE6207800F0040004280ED1F8
:102D70003B492069096801F07001884207D2384850
:102D8000006820F070002169084335490860207808
:102D900000F00800082811D13149091D606909684F
:102DA00001F07001884209D22D48001D006820F012
:102DB0007000616908432A49091D0860207800F005
:102DC0001000102811D12649091DA069096801F4D5
:102DD000E061884209D22248001D006820F4E060CA
:102DE000A16908431E49091D0860207800F02000F1
:102DF000202811D11A490831E069096801F07001F1
:102E0000884209D216480830006820F07000E16955
:102E1000084313490831086000F076F81049096842
:102E2000C1F303210F4A515C01F01F0120FA01F7A1
:102E30000B48006800F00F001146085C00F01F000E
:102E400027FA00F008490860084807600848006849
:102E5000FEF758FA8046404682E600000020005205
:102E6000184402586E4700080400002400000024A3
:102E70002C00002410B500F047F80D490968C1F393
:102E800003210C4A515C01F01F0120FA01F40848AB
:102E9000006800F00F001146085C00F01F0024FAE3
:102EA00000F005490860054804600846006810BD48
:102EB000184402586E470008040000240000002453
:102EC00000B5FFF7D7FF05490968C1F30211044AAD
:102ED000515C01F01F01C84000BD00001C440258B5
:102EE0006E47000800B5FFF7C5FF05490968C1F343
:102EF0000221044A515C01F01F01C84000BD0000DE
:102F00001C4402586E470008F0B5824E366806F041
:102F1000380636B1082E15D0102E15D0182E7DD1BA
:102F200014E07C4E103E3668C6F3401646B1794E2A
:102F3000103E3668C6F3C107774E26FA07F000E068
:102F40007548E5E07548E3E07548E1E0714E1836F4
:102F5000366806F003046F4E18363668C6F305115E
:102F60006C4E1C36366806F001056A4E243636680B
:102F7000C6F3CC0616FB05F601EE106AB8EE410A60
:102F8000002971D024B1012C50D0022C6DD16DE0FC
:102F9000604E103E3668C6F340163EB35D4E103E9E
:102FA0003668C6F3C1075C4E26FA07F301EE103A05
:102FB000F8EE411A01EE101AB8EE411A81EE812A9C
:102FC0009FED581AC0EE011A524E20363668C6F3ED
:102FD000080601EE106AB8EE411A31EE811AF7EEDA
:102FE000001A31EE211A62EE010A1EE001EE101AFB
:102FF000B8EE411ADFED4C1A81EE812A9FED491A95
:10300000C0EE011A434E20363668C6F3080601EEBC
:10301000106AB8EE411A31EE811A00E076E0F7EE60
:10302000001A31EE211A62EE010A5BE001EE101A7D
:10303000B8EE411A9FED3D2AC2EE011A9FED391AF2
:1030400080EE012A334E20363668C6F3080601EEBC
:10305000106AB8EE411A32EE011AB7EE002A31EECC
:10306000021A61EE810A3DE04EE01DE001EE101A09
:10307000B8EE411ADFED2E1A81EE812A9FED291A52
:10308000C0EE011A234E20363668C6F3080601EE5C
:10309000106AB8EE411A31EE811AF7EE001A31EEDD
:1030A000211A62EE010A1DE001EE101AB8EE411A73
:1030B0009FED1E2AC2EE011A9FED1A1A80EE012A18
:1030C000144E20363668C6F3080601EE106AB8EED4
:1030D000411A32EE011AB7EE002A31EE021A61EE01
:1030E000810A00BF00BF0B4E20363668C6F3462665
:1030F000721C01EE102AB8EE411AC0EE811ABCEE25
:10310000E11A11EE100A00E0002001E0034800BFC0
:1031100000BFF0BD104402580090D00300093D00EC
:1031200040787D01000000460024744C0024744A5D
:1031300020BCBE4B2DE9F047044614B90120BDE880
:10314000F087207800F00100002870D0FA4800686D
:1031500000F03808F8481830D0F80090B8F1100F97
:1031600006D0B8F1180F0FD109F0030002280BD1D7
:10317000F14810380068C0F3404000286AD0606809
:10318000002867D10120DAE700BF6068B0F5803F12
:1031900008D1E9481038006840F48030E649103919
:1031A00008602EE0606868B9E3481038006820F4D1
:1031B0008030E149103908600846006820F480201A
:1031C00008601EE06068B0F5A02F0DD1DA48103815
:1031D000006840F48020D84910390860084600682B
:1031E00040F4803008600CE0D3481038006820F4C8
:1031F0008030D149103908600846006820F48020EA
:10320000086000BF606898B1FEF73AF8054606E02E
:10321000FEF736F8401B642801D903208FE7C64823
:1032200010380068C0F340400028F1D012E012E0EE
:10323000FEF726F8054606E0FEF722F8401B642854
:1032400001D903207BE7BC4810380068C0F3404038
:103250000028F1D100BF207800F00200022874D1CC
:10326000B548006800F03808B3481830D0F800902E
:10327000B8F1000F05D0B8F1180F56D109F00300CE
:10328000D0BBAD4810380068C0F3800018B1E068CA
:1032900008B9012053E7A8481038006820F0190049
:1032A000E1680843A44910390860FDF7E9FF0546C5
:1032B00006E0FDF7E5FF401B022801D903203EE7A9
:1032C0009D4810380068C0F380000028F1D000BF8E
:1032D000FDF7D0FF41F2030188421AD82069402847
:1032E0000BD195480C38006820F47C3040F4003055
:1032F00091490C39086017E017E08F480C380068D6
:1033000020F47C30216940EA01308B490C39086097
:103310000AE089480C38006820F0FE40217C40EA31
:10332000016085490C39086066E0E06888B382482E
:103330001038006820F01900E16808437E49103910
:103340000860FDF79DFF054607E056E0FDF798FF92
:10335000401B022801D90320F1E6774810380068A5
:10336000C0F380000028F1D000BFFDF783FF41F2D9
:10337000030188421AD8206940280BD16E480C38C6
:10338000006820F47C3040F400306B490C39086050
:1033900017E017E068480C38006820F47C30216999
:1033A00040EA013064490C3908600AE062480C3890
:1033B000006820F0FE40217C40EA01605E490C3943
:1033C000086019E05C481038006820F001005A4994
:1033D00010390860FDF754FF054606E0FDF750FF81
:1033E000401B022801D90320A9E653481038006881
:1033F000C0F380000028F1D100BF207800F0100059
:1034000010287CD14C48006800F038084A48183031
:10341000D0F80090B8F1080F06D0B8F1180F3DD1E0
:1034200009F00300012839D1434810380068C0F37F
:10343000002020B1E069802801D001207FE600BF94
:10344000FDF718FF41F2030188421AD8206A2028AC
:103450000AD139480C38006820F0F84040F080402C
:1034600035490C39086018E033480C38006820F002
:10347000F84094F8201040EA81602F490C39086028
:103480000BE02D48001F006820F07C5094F82010BD
:1034900040EA01602849091F086066E0E06978B3E6
:1034A00025481038006840F0800023491039086032
:1034B000FDF7E6FE054606E0FDF7E2FE401B0228AA
:1034C00001D903203BE61C4810380068C0F30020F7
:1034D0000028F1D000BFFDF7CDFE41F20301884284
:1034E0001CD8206A20280CD113480C38006820F022
:1034F000F84040F0804010490C3908601AE035E08F
:103500001CE00D480C38006820F0F84094F82010BA
:1035100040EA816008490C3908600BE00648001F4A
:10352000006820F07C5094F8201040EA01600249C5
:10353000091F086019E0000010440258FA480068AA
:1035400020F08000F8490860FDF79AFE054606E085
:10355000FDF796FE401B022801D90320EFE5F24853
:103560000068C0F300200028F2D100BF207800F0EE
:103570000800082836D16069D0B1EB487430006883
:1035800040F00100E84974310860FDF779FE054616
:1035900006E0FDF775FE401B022801D90320CEE5A9
:1035A000E14874300068C0F340000028F1D019E011
:1035B000DD487430006820F00100DB497431086098
:1035C000FDF75EFE054606E0FDF75AFE401B0228A9
:1035D00001D90320B3E5D44874300068C0F340003B
:1035E0000028F1D1207800F02000202830D1A069F7
:1035F000B8B1CD48006840F48050CB490860FDF771
:103600003FFE054606E0FDF73BFE401B022801D9C0
:10361000032094E5C4480068C0F340300028F2D08D
:1036200016E0C148006820F48050BF490860FDF7EB
:1036300027FE054606E0FDF723FE401B022801D9C0
:1036400003207CE5B8480068C0F340300028F2D180
:10365000207800F0040004287DD1B448006840F4CC
:103660008070B2490860FDF70BFE054606E0FDF7E5
:1036700007FE401B642801D9032060E5AB480068C1
:1036800000F480700028F2D000BFA068012808D1A3
:10369000A5487030006840F00100A349703108600F
:1036A0002DE0A06868B9A0487030006820F00100E3
:1036B0009D49703108600846006820F004000860E9
:1036C0001DE0A06805280DD197487030006840F0D3
:1036D00004009549703108600846006840F0010018
:1036E00008600CE090487030006820F001008E49BE
:1036F000703108600846006820F00400086000BFD0
:10370000A068A0B1FDF7BCFD054608E0FDF7B8FDD7
:10371000401B41F28831884201D903200FE58248DD
:1037200070300068C0F340000028EFD013E0FDF7D0
:10373000A7FD054608E0FDF7A3FD401B41F28831D7
:10374000884201D90320FAE4774870300068C0F35A
:1037500040000028EFD1606A00287DD07248103008
:10376000006800F03800182877D0606A022875D108
:103770006D48006820F080706B490860FDF780FD9F
:10378000054606E0FDF77CFD401B022801D9032019
:10379000D5E465480068C0F340600028F2D100BF5E
:1037A000D4E90A1041EA00105F492831096840F263
:1037B000F332914308435C4928310860208E401E53
:1037C000C0F30800616B491E4FF47E4202EA4121BA
:1037D0000843218F491ED20102EA014108433C21DE
:1037E000095D491E120202EA016108434E49303167
:1037F000086000BF081F006820F00100091F086072
:103800004948343000684FF6F8718843A16C40EAAB
:10381000C10045493431086043482C30006820F02D
:103820000C00216C084340492C31086008460068B0
:1038300020F00200616C08433B492C3108600846C7
:10384000006840F4803008600846006840F40030AA
:1038500008600846006802E093E038E01FE040F4AA
:10386000802008600846006840F0010008602E488B
:10387000006840F080702C490860FDF701FD0546A6
:1038800006E0FDF7FDFC401B022801D9032056E4A9
:1038900025480068C0F340600028F2D071E022485B
:1038A000006820F0807020490860FDF7E9FC0546BB
:1038B00006E0FDF7E5FC401B022801D903203EE4A9
:1038C00019480068C0F340600028F2D159E016485A
:1038D00028300768144830300668606A012821D013
:1038E00007F00301A06A81421CD1C7F30511E06A09
:1038F000884217D1C6F30801206B401E814211D1C6
:10390000606B401EC6F3462188420BD1A06B401E5F
:10391000C6F30641884205D1E06B401EC6F306613E
:10392000884205D001200AE40044025800480258A9
:1039300015480068C0F3CC07A06CB84221D01248EB
:103940000838006820F001000F4908390860FDF7C9
:1039500097FC054600BFFDF793FC401BFBD00A48CF
:1039600000684FF6F8718843A16C40EAC10006492F
:10397000086005480838006840F00100024908392D
:10398000086000204AE400003444025803490968F2
:1039900021F002010143014A1160704720040058E0
:1039A000042808D14FF0E021096941F004014FF0EB
:1039B000E022116107E04FF0E021096921F00401E4
:1039C0004FF0E0221161704770B504462546681E2D
:1039D000B0F1807F01D301200FE0681E4FF0E0219D
:1039E00048610F214FF0FF3000F0E4FB00204FF062
:1039F000E021886107200861002070BD10B586B005
:103A000004463249206888425ED13148D0E900102E
:103A1000012319432E4AC2E9001000201146C8674D
:103A20000846FEF7E3F900BF00BF2A48006840F0EF
:103A30001000284908600846006800F01000009057
:103A400000BF00BF00BF00BF00BF224810380068A1
:103A500040F001001F49103908600846006800F076
:103A60000100009000BF00BF00BF00BF00BF0846BC
:103A7000006840F0010008600846006800F001009E
:103A8000009000BF00BF00BF4FF400700190022003
:103A9000029001200390022004900720059001A9C4
:103AA0000D48FDF7D1FA4FF4806001900720059092
:103AB00001A90948FDF7C8FA2520FDF7B4FC032247
:103AC00011462520FDF7C3FC06B010BD00100140D3
:103AD00030030024F04402580000025810B5044698
:103AE0002049206888423BD11F48008800F40040EC
:103AF00088BB1D48008800F4804070B11B480078E6
:103B00000A2803D000201849088024E016480088BD
:103B100040F40040144908801DE0144800780D2846
:103B200006D11148008840F480400F49088012E017
:103B30000E4800780C490988C1F30D010C4A505415
:103B400009480088401C0849088008460088C728A2
:103B500001DD00200880012204490648FCF713FD1E
:103B600010BD0000001001402400002426000024A5
:103B7000F0030024B804002400BFFEE700BFFEE706
:103B8000704710B54B6A33B1B2F1406F03D08B6A06
:103B90005B1E046823618B69002B76D00B6AE3B34C
:103BA0008B680468E361CB69FBB1D1E90B34234333
:103BB0004C6B23434C6A23438C8A43EA84430C694D
:103BC00023430C6A2343CC682343CC6923438C6989
:103BD00023430C682343134304686361B2F1406FCD
:103BE00002D04B680468A361BEE0D1E90B342343E3
:103BF0004C6B23434C6A23438C8A43EA84430C690D
:103C000023430C6A2343CC6923438C6923430C6808
:103C10002343134304686361A6E0FFE7CB69EBB17C
:103C2000D1E90B3423434C6B23434C6A23438C8AE6
:103C300043EA84430C6A2343CC682343CC6923437F
:103C40008C6923430C682343134304686361B2F116
:103C5000406FC9D04B680468A36185E0D1E90B349B
:103C600023434C6B23434C6A23438C8A43EA8443AB
:103C70000C6A2343CC6923438C6923430C68234398
:103C80001343046863616FE0FFE70B6AC3B38B689B
:103C90000468E361CB69EBB1D1E90B3423434C6B8E
:103CA00023434C6A23438C8A43EA84430C692343AD
:103CB0000C6A2343CC682343CC6923438C69234398
:103CC000134304686361B2F1406F4DD04B680468E0
:103CD000A36149E0D1E90B3423434C6B23434C6A85
:103CE00023438C8A43EA84430C6923430C6A2343AD
:103CF000CC6923438C69234313430468636133E035
:103D0000FFE7CB69DBB1D1E90B3423434C6B234391
:103D10004C6A23438C8A43EA84430C6A2343CC686D
:103D20002343CC6923438C692343134304686361B1
:103D3000B2F1406F18D04B680468A36114E04B6A7D
:103D400093B1D1E90B3423434C6B23434C6A234397
:103D50008C8A43EA84430C6A2343CC6923438C69ED
:103D6000234313430468636110BD2DE9F041044609
:103D70000E4617469846069D12E0681C80B1FDF776
:103D80007FFAA0EB0800A84200D84DB9042084F8BF
:103D90004100606C40F0010060640120BDE8F081EA
:103DA00020688068304008B1012000E00020B8425F
:103DB000E3D10020F2E700002DE9F04104460E4671
:103DC00000275548006800F00300032802D10120B5
:103DD000BDE8F08150482838006820F080604E49E6
:103DE00028390860FDF74CFA054606E0FDF748FA69
:103DF000401B022801D90320EAE747482838006819
:103E0000C0F3C0600028F1D100BF4348006820F42F
:103E10007C30216840EA01303F490860A088401E9C
:103E2000C0F30800A168491E4FF47E4202EA412116
:103E30000843A189491ED20102EA01410843217CBD
:103E4000491E120202EA0161084333491031086039
:103E500000BF3148001D006820F0C00061690843C0
:103E60002D49091D08600846006820F02000A1695E
:103E700008432949091D08600846006820F0100021
:103E800008602548143000684FF6F8718843E169EE
:103E900040EAC1002049143108601F48001D006835
:103EA00040F010001C49091D08602EB90846006842
:103EB00040F40020086012E0012E08D11648001DD1
:103EC000006840F480101449091D086007E012489A
:103ED000001D006840F400100F49091D08600E48DD
:103EE0002838006840F080600B4928390860FDF7E9
:103EF000C7F9054606E0FDF7C3F9401B022801D9C2
:103F0000032065E7044828380068C0F3C060002833
:103F1000F1D038465CE70000284402582DE9F04112
:103F200004460E4600275548006800F003000328A9
:103F300002D10120BDE8F08150482838006820F007
:103F400080504E4928390860FDF79AF9054606E089
:103F5000FDF796F9401B022801D90320EAE74748FC
:103F600028380068C0F340700028F1D100BF4348F2
:103F7000006820F07C70218840EA01503F490860C9
:103F8000A088401EC0F30800A168491E4FF47E427D
:103F900002EA41210843A189491ED20102EA0141F6
:103FA0000843217C491E120202EA01610843334999
:103FB0001831086000BF3148001D006820F44060DF
:103FC000616908432D49091D08600846006820F40E
:103FD0000070A16908432949091D08600846006866
:103FE00020F48070086025481C3000684FF6F87196
:103FF0008843E16940EAC10020491C3108601F483C
:10400000001D006840F480701C49091D08602EB92D
:104010000846006840F48000086012E0012E08D1D4
:104020001648001D006840F400001449091D08608E
:1040300007E01248001D006840F080700F49091D1C
:1040400008600E482838006840F080500B49283935
:104050000860FDF715F9054606E0FDF711F9401B6C
:10406000022801D9032065E7044828380068C0F316
:1040700040700028F1D038465CE700002844025820
:1040800010B5FDF703F9FCF783FA012801D0FCF71E
:1040900084FA10BD3448006840F47000324908606A
:1040A0003248006800F00F00072806D22F48006849
:1040B00020F00F00C01D2D4908602D48006840F019
:1040C00001002B4908600020294910310860284868
:1040D000006828490840264908602448006800F024
:1040E0000F00072806D92148006820F00F00C01DE6
:1040F0001E49086000201E4918310860091D08602B
:10410000091D08601C481A49283108601B48091D10
:1041100008601B48091D08600020091D0860184838
:10412000091D08600020091D08601548091D086068
:104130000020091D08600E48006820F480200C490A
:10414000086000200A49603108600E4800686FF37B
:104150000F00B0F1005F02D201200B49086043F26A
:10416000D2000A490860704788ED00E00020005244
:10417000004402587FEDF6EA000202020000FF014F
:10418000800201010010005C0881005100400052D3
:1041900010B50248FCF706FA10BD0000B804002470
:1041A00000BFFEE702480068C0F30220704700002D
:1041B0000CED00E010B5002804DB0A07130E054AD9
:1041C000135406E00A07140E034A00F00F031B1FE6
:1041D000D45410BD00E400E018ED00E000BF7047CB
:1041E00070B504460420FFF7DBFB0A48046025464F
:1041F0004FF47A7045434FF0E020006940F0020030
:104200004FF0E021086108464561006940F0010077
:10421000086170BD1C00002430B50446002504E090
:104220004FF47A7000F004F86D1CA542F8D330BD4D
:1042300070B5034600224FF0E02675690D4E3668D2
:1042400003FB06F44FF0E026B16910E04FF0E026E2
:10425000B06988420BD0884202D20E1A324402E082
:104260002E1A0E4432440146A24200D300E0EDE78C
:1042700000BF70BD1C00002400BF054AD26902F0D7
:104280004002002AF9D0C2B2014B9A627047000086
:104290000010014010B500F02FF8FDF703F80423DB
:1042A00002220521C02000F06FF94FF4F070FFF7F3
:1042B00097FF4FF4E13000F023FAFCF778F9FCF7B0
:1042C0007BF9FCF77EF9FCF781F945F6BF5141F225
:1042D0008730FCF780F90020FCF782F9022807D12B
:1042E0004FF6FF70FCF781F9FCF784F9FCF787F9CA
:1042F000FCF78AF9002010BD10B500BF4C480068DB
:1043000000F4003000B139E000BF00BF00BFBFF3D0
:104310004F8F00BF00BF00BF00BF00BF00BFBFF393
:104320006F8F00BF00BF00BF00204249086000BF80
:1043300000BF00BFBFF34F8F00BF00BF00BF00BF73
:1043400000BF00BFBFF36F8F00BF00BF00BF384882
:10435000006840F400303649086000BF00BF00BF6D
:10436000BFF34F8F00BF00BF00BF00BF00BF00BF43
:10437000BFF36F8F00BF00BF00BF00BF00BF2C4B5B
:104380001B6803F4803303B148E00023284C7034E9
:10439000236000BF00BF00BFBFF34F8F00BF00BF4F
:1043A00000BF231F1868C0F34E3100BFC0F3C9021D
:1043B00000BF43F6E07303EA41134FF0404404EAC0
:1043C000827423431B4C1034236000BF00BF131EB4
:1043D000A2F10102EDD10B1EA1F10101E6D100BF56
:1043E00000BF00BFBFF34F8F00BF00BF00BF104B27
:1043F0001B6843F480330E4C236000BF00BF00BF36
:10440000BFF34F8F00BF00BF00BF00BF00BF00BFA2
:10441000BFF36F8F00BF00BF00BF00BF05484C3027
:10442000006840F0040003494C31086010BD0000F2
:1044300014ED00E050EF00E000B5ADB04C211AA83B
:10444000FCF73AF838210CA8FCF736F8182106A832
:10445000FCF732F800200490059000900190029043
:10446000039048481A9001201B9020211C91102194
:104470001D9117211E914FF4A0611F9100211AA8D0
:104480008161C1610162FDF71AF91AA8FDF72CF9E3
:104490004FF48070129006200C900020139014901E
:1044A0001190159017901890199041F288320CA92C
:1044B0001AA8FDF7B2F84FF48070129005200C9006
:1044C00000201390149011904FF0807015900020F0
:1044D00017901890199002200690079010200890CD
:1044E0000120099000200A904FF480000B9041F2C7
:1044F000883306AA0CA91AA8FDF72AF801208DF81E
:10450000000000208DF801004FF0104001901B20AA
:104510008DF8080000208DF809008DF80A000320AE
:104520008DF80B0000208DF80C008DF80D00012097
:104530008DF80E008DF80F00FCF73EFF6846FCF783
:104540000DFF0420FCF74EFF4FF480701290EB201B
:104550000C904FF4406013904FF400500F900020E7
:10456000149006201190C005159000201790189007
:104570001990059004AA0CA91AA8FDF70DF92DB001
:1045800000BD000000500052F0B59DB004460F463B
:1045900015461E464C210AA8FBF78EFF202102A8D3
:1045A000FBF78AFF0220FCF7A3FF00BF0020019069
:1045B0004F48006820F001004D4908600846006837
:1045C00000F0010001904B48006840F44040494928
:1045D00008600846006800F44040019000BF00BF3A
:1045E00000BF4448006800F40050B0F5005FF8D107
:1045F00000BF4148006840F002003F49086008469B
:10460000006800F00200019000BF00BF00BF002062
:1046100001903848006840F4404036490860084638
:10462000006800F4404001903148006840F001000B
:104630002F4908600846006800F00100019000BFA3
:1046400000BF00BF2B48006800F40050B0F5005FC9
:10465000F8D121200A904FF480300B900120109067
:10466000022013900221149115971694179518960D
:10467000199108211A9100211B911C910AA8FEF79B
:1046800059FD10B101201DB0F0BD3F200290032064
:104690000390002004900820059040200690079089
:1046A0000001089040200990042102A8FEF752FA68
:1046B00000200721114A03C2052010498860C0214B
:1046C0000E48C1600C21016102214161816180219C
:1046D000C161002101624162FDF788FBFFF7ACFE7A
:1046E0000020FFF753F9FCF7DBFB0020CBE70000CD
:1046F0002C04005818480258F4440258300300248F
:1047000010B5044609480A4908600846446000217B
:104710008160C160016181610C214161FBF779FF1A
:10472000012204490248FBF72EFF10BD0010014092
:10473000B80400242600002410B500290AD0087807
:10474000002807D005487844FBF768FF002801D00F
:10475000002010BD0248784410BD00005A0000003F
:10476000520000004FF04070E1EE100A7047000068
:104770000000010203040102030406070809000007
:10478000BC4700080000002430030000D4020008E9
:1047900098480008300300245065010030030008E9
:1047A0001C00000043000000F8FFFFFF0C000000A9
:1047B0000E0000000F0000002E000000113C90D001
:1047C000030401233210230101B3FFFF2205000D72
:1047D0003C79790390197E0390CD7303900C1BC430
:1047E0009E044002202D199C01641E549F04904C8D
:1047F000041A58041A44041A48041A50041A4004AB
:104800001AB4041ABC041A64041A6C041AA8041A10
:104810005C041AAC041AA0041A80041A98041A8CB6
:10482000041A74041E30A20490C8086112FF1F3CD1
:10483000E503903CE6041AE7041AE80429109904F9
:10484000411AEC081AEC241AEC241A902439109915
:1048500004016C0617D4C3B2A16F180A7910039033
:10486000550D0390F9041ED10E039019101A450836
:104870001A81041AA9041EE4A30490EC041AF40497
:104880001E54A20490FC081E04A40490E0080150E9
:08489000023B1F1AAA0181007E
:0200000490006A
:10000000662939F0C785642900F0D880732900F08B
:100010005C850020704700002D4B19680868B0E827
:10002000F04F80F30988BFF36F8F4FF0000080F32B
:10003000118870470000000008480068006880F3DD
:1000400008884FF0000080F3148862B661B6BFF3F1
:100050004F8FBFF36F8F00DF00BF00BF08ED00E0E0
:10006000DFF80C00016841F470010160704700BFC7
:1000700088ED00E0EFF30980BFF36F8F144B1A682F
:100080001EF0100F08BF20ED108A20E9F04F10601D
:1000900009B44FF0500072B680F31188BFF34F8F50
:1000A000BFF36F8F62B638F0E9FD4FF0000080F3C8
:1000B000118809BC19680868B0E8F04F1EF0100FED
:1000C00008BFB0EC108A80F30988BFF36F8F7047C8
:1000D000B0020024EFF30580704700000FB404491C
:1000E00010B503AA029800F0F5FC10BC5DF814FBF3
:1000F000200000240FB41CB5074B06AA7B446946B8
:100100000090059800F0B7FC0020694600F0C6FC9E
:100110001CBC5DF814FB00009D09000070B504468E
:1001200085690068C10601D5302600E02026C00799
:1001300007D070BDD4E9012130469047206A401CA9
:1001400020626D1EF6D570BD70B5044685690078D5
:10015000C00707D170BDD4E9012120209047206A53
:10016000401C20626D1EF6D570BD70B50C4605466C
:10017000012A05D02878800600D5EA69002302E02C
:10018000012305E05B1C934202D2E05C0028F9D118
:10019000A869E618C01AA861286A18442862284687
:1001A000FFF7BCFF04E0D5E9012114F8010B9047EB
:1001B000B442F8D32846FFF7C7FF70BD2DE9F041E0
:1001C0000646002410687529314616A510D0AFF3F5
:1001D0000080002802DA404213A507E031688A0750
:1001E00001D512A502E0490704D511A5012401E0BB
:1001F000AFF3008000210A2206F1240709E0B0FBDA
:10020000F2FCB0FBF2F302FB1C00303078541846CD
:10021000491C0028F3D123462A463046BDE8F04168
:1002200000F0BCB9000000002D0000002B00000011
:10023000200000002DE9F05F894604464FF0000AD7
:10024000DFF824B1FB44C0F820A02046E1688847CD
:1002500000287DD0252806D0D4E901219047206AC6
:10026000401C2062F1E700255F462046E168884790
:100270002028064607DB312E05D2B81910F8200CCD
:1002800008B10543F1E7A80701D525F00405C4F836
:100290001CA00027C4F818A02A2E09D0304604F06C
:1002A000DCF838B304EB8708303EC8F8186019E072
:1002B00059F8041B204604EB87029161E1688847E6
:1002C000012F064618D1E069002820DA25F0200524
:1002D0001DE0D8F8180000EB800006EB4000303835
:1002E000C8F818002046E1688847064604F0B5F8CB
:1002F0000028EED1012F0AD02E2E08D12046E16829
:1003000088477F1C0646022F45F02005C4DBA06904
:10031000002803DA404245F00105A061E80701D05A
:1003200025F01005A6B1A6F14100192802D8203603
:1003300045F400654A463146204625604D46FFF7A4
:100340005FFE60B1012807D0ED1D25F0070000E039
:1003500007E000F1080978E705F1040975E7304680
:100360007AE7206ABDE8F09FD49B040040EA0103CD
:10037000024630B59B0710D14FF0013400E008C2AF
:1003800008C91D1B9D4315EAC41FF8D013F0FF01D7
:1003900002F8011B0DD01B0AF8E711F8013B002BF6
:1003A00002F8013B05D011F8013B002B02F8013B9C
:1003B000F3D130BD10B5431C02E010F8011B71B140
:1003C0008107FAD14FF0013202C88C1A8C4314EA2B
:1003D000C211F9D0C01A0A0603D0C01E10BDC01A3F
:1003E00010BD0A0401D0801E10BD0902FCD0401EC1
:1003F00010BD032A40F2308010F0030C00F015808D
:1004000011F8013BBCF1020F624498BF11F801CB17
:1004100000F8013B38BF11F8013BA2F1040298BF7C
:1004200000F801CB38BF00F8013B11F0030300F0E6
:100430002580083AC0F0088051F8043B083A51F88A
:1004400004CBA0E80810F5E7121D5CBF51F8043B8F
:1004500040F8043BAFF30080D20724BF11F8013B02
:1004600011F801CB48BF11F8012B24BF00F8013B64
:1004700000F801CB48BF00F8012B704710B5203AB7
:10048000C0F00B80B1E81850203AA0E81850B1E84D
:100490001850A0E81850BFF4F5AF5FEA027C24BF03
:1004A000B1E81850A0E8185044BF18C918C0BDE8FA
:1004B00010405FEA827C24BF51F8043B40F8043BC3
:1004C00008BF7047D20728BF31F8023B48BF11F878
:1004D000012B28BF20F8023B48BF00F8012B7047D2
:1004E00002F0FF0343EA032242EA024200F002B8AC
:1004F0004FF000020429C0F0128010F0030C00F04D
:10050000BF87CCF1040CBCF1020F18BF00F8012B1F
:10051000A8BF20F8022BA1EB0C0100F0B1BF5FEAED
:10052000C17C24BF00F8012B00F8012B48BF00F864
:10053000012B70474FF0013C50F8042B51F8043B5D
:100540009A4215D1A2EB0C03934313EACC130BD1BF
:1005500050F8042B51F8043B9A4209D1A2EB0C034A
:10056000934313EACC13E7D04FF00000704700BF6D
:10057000D01A01BAB1FA81F101F0180122FA01F0A2
:10058000CB40C1F12001DBB2C0B2C01A2CFA01F39A
:10059000D11A914311EAC311E6D170472DE9F04712
:1005A0000D4699469246044600F1240801688806E3
:1005B00004D5E06921F01001216000E00120A8428B
:1005C00001DD471B00E00027A1697A1902EB090051
:1005D000081AA0612078C00602D42046FFF79EFDCD
:1005E000002608E0D4E901211AF806009047206AA5
:1005F000401C761C20624E45F4DB2078C0060AD5EC
:100600002046FFF78BFD06E0D4E90121302090471A
:10061000206A401C2062381EA7F10107F4DC07E0C5
:10062000D4E9012118F805009047206A401C206297
:10063000281EA5F10105F3DC2046FFF785FD207893
:10064000000602D50220BDE8F0870120FBE77047D5
:100650002DE9FF4F0C461E464FF0FF378BB0D2E915
:100660000001DDF860800A908A46C1F30A5505B999
:100670003D46002108464FF00000BAF1000F00F49B
:10068000400005DA00EB80004FF4400101EA500021
:100690004FEA9059B9F1010F00DDB9460A9850EAC6
:1006A0004A000ED044F61050A5F2FF3545432F14F2
:1006B000B8F1000F1ED07542291E1EDDC9F10002DF
:1006C0001CE0B8F1010F4FF0000001D0302103E031
:1006D000F24305E02154401CB042FBDB30460022CF
:1006E000002121540B99C1F80880C1E900200FB006
:1006F000BDE8F08FBD1B6D1CDEE74A4600DA69429B
:1007000006A800F07FFA06AB93E8070003AB83E886
:10071000070050460A9900F0EBFA8DE80700A0F5B3
:1007200000501F3800900398002D0ADD42F21F018F
:100730004A460844002303A90390684600F054FD8C
:1007400009E0A0F500504A461F38002303A9039092
:10075000684600F05EFD8DE807000004000C03D041
:100760004FF0FF30410800E01046B8F1000F03D011
:100770000022009215461EE0751E05D400F0BCF95B
:10078000303262556D1EF9D5B3460122084302D0BE
:1007900000227F1C04E02078302801D100227F1E37
:1007A000002A099784D01DE0112D07DA00F0A4F982
:1007B000303262556D1C50EA0102F5D1084302D077
:1007C0000098C8B10EE00021681E05E0235C625C61
:1007D00063542254401E491C8142F7DBAB46A81BE0
:1007E000401E0990002004F80B000B98099AC0F8ED
:1007F0000880C0E9002B7AE711264FF0000857E780
:100800002DE9F04F88460446D21D22F0070191B031
:10081000D1E90001CDE90A0103F0E9FD02460B9898
:10082000C00F01D02D2007E02068810701D52B20C3
:1008300002E0202101EAC000032A099001D0072A22
:1008400005DB03464146204600F09CF90BE1207889
:10085000800601D5E06900E00620B8F1650F814609
:1008600006D0B8F1660F18D0B8F1670F70D131E03B
:100870000020B9F1110F009001DB112301E009F113
:1008800001030AAA01A90CA8FFF7E2FEDDE90C703A
:10089000002609F10105834647E001204B46009000
:1008A0004FF000470AAA01A90CA8FFF7D1FEDDE925
:1008B0000DB00C995D46002610B909F101000D1824
:1008C000B9EB050003D4C0F1FF3609F10105A5EB32
:1008D00009002BE0B9F1010F01DA4FF00109002006
:1008E000B9F1110F0090484601DD112300E00346E5
:1008F0000AAA01A90CA8FFF7ABFEDDE90C704D4672
:1009000000268346207800070AD4AB4500DA5D460E
:1009100001A8012D04DD411911F8011C302907D06F
:100920004F4502DA17F1040F04DA012082460FE086
:100930006D1EEEE7002F02DCED1B3E4403E0781C49
:10094000A84200DD7D1CB81B00F1010A4FF00047F2
:100950002078000703D4AA4501DB4FF0FF3A0021BD
:10096000B7F1004F0DF143088DF8431024D0022059
:100970002B23002F01DA7F422D230A21021EA0F132
:10098000010000DC5FB197FBF1FC97FBF1F201FB8A
:100990001C7C17460CF1300C08F801CDEEE7A8F1ED
:1009A000010003702188090501D5452100E065217A
:1009B000A0F1010800F8011C09980FA9A1EB080794
:1009C000FF1D00B10120411901EBEA70A169384413
:1009D000081A401EA0612078C00602D42046FFF706
:1009E0009DFB099828B1D4E901219047206A401C59
:1009F00020622078C00622D52046FFF78FFB1EE03C
:100A0000002E04DBB34502DD01A8805D00E030204C
:100A1000D4E901219047206A401C2062761CAAF18B
:100A200001005FEA000A0AD100F02FFDC0680168EA
:100A3000405CD4E901219047206A401C2062281EB6
:100A4000A5F10105DCDC07E0D4E9012118F8010B70
:100A50009047206A401C2062381EA7F10107F3DC92
:100A60002046FFF771FB032011B041E601694A1CE3
:100A700002610878704700B58FB0CDE901310021DF
:100A8000059105497944CDE9031011466846FFF701
:100A9000D1FB0FB000BD0000E5FFFFFF0A6802F8C0
:100AA000010B0A60704710B5436913B1AFF30080C2
:100AB00001E0FFF75AFB012010BD127800F124017C
:100AC0000A7000224A700122EDE711684FF0FF32F0
:100AD000E9E70000074B70B50D467B44FFF7CBFFFD
:100AE0000446284600F000F910B14FF0FF3070BD09
:100AF000204670BD9B37007830B5B0F10A024FEA4E
:100B0000900E71F100034EEA817EB0EB0E0061EBB6
:100B100091014FEA101E4EEA017E10EB0E0041EBF0
:100B200011114FEA102E4EEA016E10EB0E0041EB50
:100B300011214FEA104E4EEA014E10EB0E0041EB30
:100B40001141401841F100014FEAD00040EA4170E4
:100B50004FEAD10110EB80054FEA810444EA90741A
:100B600044EB01046D1944EB0404521BA3414FF004
:100B7000000348BF0A3200D530BD401C41F10001DE
:100B800030BD00002DE9F0411F46044603260168F0
:100B9000072A01F4006004DB08B116A505E016A5DC
:100BA00003E008B115A500E015A521F010002060B4
:100BB000A069C01EA0610FB1401EA0612046FFF7D2
:100BC000ADFA4FB1D4E9012138469047206A401C64
:100BD0002062C01C206206E0206AFAE7D4E9012105
:100BE00015F8010B9047761EF8D22046FFF7ACFAB5
:100BF000BDE8F0814E414E006E616E00494E4600E8
:100C0000696E66002DE9F047814616468AB0354880
:100C100078440DC88DE80D0032487844801C03AC40
:100C20000DC884E80D0041F69B300844372190FB45
:100C3000F1F290FBF1F5A5F1800501FB12041B3CDC
:100C400002D56442012000E00020DFF898A0804631
:100C50000027FA44AAF1BE0A0EE0E0070AD03246A5
:100C6000684607EB470101230AEB810100F0D1FA46
:100C70008DE8070064107F1C002CEED1194F7F44D3
:100C8000AE3F19E0E80715D007EB04100DF1180A84
:100C900090E80E008AE80E00C068F04201D1981971
:100CA00008903246012306A903A800F0B2FA03AB6C
:100CB00083E807006D10641C002DE3D14FF00103A1
:100CC00032466946B8F1000F03A802D000F08CFA52
:100CD00001E000F09EFAC9E90001C9F808200AB055
:100CE000BDE8F08798920400007B00F08000704718
:100CF0005FEA400C08BF91F0000F4FEA8C234FEAE7
:100D0000C12243EA51514FEA1C5018BF00F5F04090
:100D10004FEA300018BF41F000415FEA6C5C00F020
:100D20002980BCF1FF3F08BF40F080407047130CA2
:100D300006BF12044FF0100C4FF0000C130E04BF4E
:100D400012020CF1080C130F04BF12010CF1040C79
:100D5000930F04BF92000CF1020CD30F04BF52009A
:100D60000CF1010C11464FF00002A0F11F00A0EBA6
:100D70000C00704711F0004F08BF704731F0004180
:100D80003FF4D5AF0B0C06BF09044FF0100C4FF029
:100D9000000C0B0E04BF09020CF1080C0B0F04BF72
:100DA00009010CF1040C8B0F04BF89000CF1020C3B
:100DB000CB0F04BF49000CF1010CCCF12003A0EBD8
:100DC0000C0022FA03F302FA0CF241EA030100F1EB
:100DD0000100704720F07F4C80EA030023F07F473A
:100DE000ACEB070303F57C5300F0004003F1FF0375
:100DF0002DE980494FEA154B09B44FEA144325EA1F
:100E00000B4E24EA03480FF2042606EB1327490889
:100E10003E785FEA320203FB0667C7F5000707FB6F
:100E200006F64FEA54374FEAD64606F1020607FBAC
:100E3000066CCCF1005C4FEA1C472CEA074C07FB20
:100E400006F40CFB06F504EB15464FEA961634BF84
:100E500000204FF000404FEAD13706FB07FC4FEA75
:100E60001C4C0CFB0BF7D21B03FB0CF761EB0701CF
:100E70000CFB0EF7B0EB074072EB17420CFB08F7C8
:100E800034BFA2EB0742B2EB074261EB17414FEAD6
:100E90000C444FEA910706FB07FC4FEA1C4C0CFB85
:100EA0000BF7B0EBC74072EB573203FB0CF734BFC4
:100EB000A2EBC742B2EBC74261EB57310CFB0EF716
:100EC000B0EBC70072EB57720CFB08F734BFA2EB14
:100ED000C702B2EBC70261EB5771039F4FEA816112
:100EE00041EA921104EBCC044FEAD1374FEA826217
:100EF00006FB07FC42EA90124FEA80604FEA1C4C66
:100F00000CFB0BF7D21B03FB0CF761EB07010CFB8F
:100F10000EF7B0EB074072EB17420CFB08F734BF3B
:100F2000A2EB0742B2EB074261EB17414FEA8C5547
:100F30004FEA910704EB9C2406FB07FC4FEA1C4C8C
:100F40000CFB0BF7B0EBC74072EB573203FB0CF70F
:100F500034BFA2EBC742B2EBC74261EB57310CFB87
:100F60000EF7B0EBC70072EB57720CFB08F734BFFB
:100F7000A2EBC702B2EBC70261EB577115EB4C2530
:100F80004FEA816141EA92114FEA82624FEAD1371A
:100F900042EA901206FB07FC44F100044FEA80602D
:100FA0004FEA1C4C0CFB0BF7D21B03FB0CF761EB5D
:100FB00007010CFB0EF7B0EB074072EB17420CFB7E
:100FC00008F734BFA2EB0742B2EB074261EB1741CF
:100FD00015EB1C154FEA813141EA92414FEA82320A
:100FE00042EA90424FEA80304FEA0C7644F1000426
:100FF00048EA03434EEA0B484FF0000EB2EB080CF0
:1010000071EB030724BF624639464EEB0E0E4FF0DC
:10101000000B0018524149414BEB0B0BB2EB080C93
:1010200071EB03077BF1000B24BF624639464EEBA0
:101030000E0E4FF0000B0018524149414BEB0B0BC9
:10104000B2EB080C71EB03077BF1000B24BF624687
:1010500039464EEB0E0E51EA020718BF46F0010664
:1010600016EB0E7655F1000254F1000103D5BDE8F0
:101070008901BDE80088BDE88901BDE80048B619CE
:10108000524141EB0101A3F10103704780807F7E53
:101090007D7C7B7A797877767675747372717170EE
:1010A0006F6E6E6D6C6C6B6A6A69686867666665A0
:1010B0006464636362616160605F5F5E5E5D5D5C2E
:1010C0005C5B5B5A5A59595858575756565555559F
:1010D0005454535352525251515050504F4F4F4EFF
:1010E0004E4D4D4D4C4C4C4B4B4B4A4A4A4949494D
:1010F000484848474747474646464545454444448F
:10110000444343434342424242414141002B9C46B7
:1011100030D477002BD01CB54FEA370703B44FF01B
:1011200010004FF01001BAF1000F06D0BCF1000F13
:10113000DCBF40F0080040F008014FF000000FBC99
:10114000BDE810400BF1010BBBF1010F08BF5FEAD6
:10115000170722BF12F1010211F101014FF0004106
:1011600043F1000300F0004043EA00007047F9D368
:101170005708D0E746EA064613F1400F4FEA1646F5
:101180001FDD13F1200FDFBF16430A460021203375
:101190005B42BED0C3F1200746EA064602FA07F7D3
:1011A0004FEA164646EA0706C3F1200722FA03F281
:1011B00001FA07F721FA03F14FF0000342EA0702B0
:1011C000A7E746EA020646EA06464FEA164646EA18
:1011D0000106BCBF46EA0646360C4FF000034FF04E
:1011E00000024FF0000194E72DE9804C9A469346A7
:1011F00070B491E8380007C831EA400C48BF34EABF
:10120000430C03D5FFF7E6FDFFF780FFF0BCBDE818
:10121000008C2DE9804C9A46934670B491E83800D2
:1012200007C810F0804F08BF13F0804F03D100F0C3
:1012300005F8FFF76BFFF0BCBDE8008C20F07F479E
