:020000040800F2
:10000000280A002439030008D93A0008D13A000828
:10001000D53A0008A7050008F140000800000000DC
:10002000000000000000000000000000D93F0008B0
:10003000AB05000800000000DB3A0008DB3F0008C9
:100040005303000853030008530300085303000838
:100050005303000853030008530300085303000828
:100060005303000853030008530300085303000818
:100070005303000853030008530300085303000808
:1000800053030008530300085303000853030008F8
:10009000530300085303000853030008C7030090EC
:1000A00053030008990F00905303000853030008FE
:1000B00053030008530300085303000853030008C8
:1000C00053030008530300085303000853030008B8
:1000D00053030008E14000085303000853030008DD
:1000E00053030008530300080000000053030008F6
:1000F0005303000853030008530300085303000888
:100100005303000853030008530300085303000877
:100110005303000853030008530300085303000867
:100120005303000853030008530300085303000857
:100130005303000853030008530300085303000847
:1001400000000000000000000000000000000000AF
:100150005303000853030008530300085303000827
:100160005303000853030008530300085303000817
:100170005303000853030008530300085303000807
:1001800053030008530300085303000853030008F7
:1001900053030008530300085303000853030008E7
:1001A00053030008530300085303000853030008D7
:1001B00053030008530300085303000853030008C7
:1001C00053030008530300085303000853030008B7
:1001D00053030008530300085303000853030008A7
:1001E0005303000853030008530300085303000897
:1001F0005303000853030008530300085303000887
:100200005303000853030008530300085303000876
:10021000190F00905303000853030008530300080C
:1002200053030008530300085303000800000000B4
:1002300053030008530300080000000053030008A4
:100240005303000853030008530300085303000836
:100250005303000853030008530300085303000826
:100260005303000853030008530300085303000816
:100270005303000853030008530300080000000064
:100280005303000853030008530300080000000054
:10029000000000005303000800F002F800F03CF8F2
:1002A0000AA090E8000C82448344AAF10107DA45D1
:1002B00001D100F031F8AFF2090EBAE80F0013F0E7
:1002C000010F18BFFB1A43F0010318472444000034
:1002D00044440000103A24BF78C878C1FAD85207C5
:1002E00024BF30C830C144BF04680C6070470000B0
:1002F0000023002400250026103A28BF78C1FBD82F
:10030000520728BF30C148BF0B6070471FB504F0CB
:10031000E1F91FBD10B510BD00F0D1F81146FFF78F
:10032000F5FF03F047FF00F0EFF803B4FFF7F2FF2B
:1003300003BC03F0FBFE0000094880470948004762
:10034000FEE7FEE7FEE7FEE7FEE7FEE7FEE7FEE785
:10035000FEE7FEE704480549054A064B70470000E2
:10036000E53F00089902000828040024280A002418
:100370002806002428060024704753EA020C00F0E7
:1003800069802DE9F04B4FF00006002B1FBFB3FA38
:1003900083F503FA05F424FA05F65E4012BF16430E
:1003A000B2FA82F502FA05F4C5F120051EBF22FA61
:1003B00005FC44EA0C04203556EA044C4FEA144488
:1003C00018BF641C4FF000084FF00009904271EB19
:1003D000030C39D3002919BFB1FA81F701FA07F6E6
:1003E000B0FA80F700FA07F6C7F120071EBF20FA1F
:1003F00007FC46EA0C062037B6FBF4FCA7EB050722
:10040000103F07F01F0BCBF120060CFA0BFB2CFA68
:1004100006F644BFB3460026202FA4BF5E464FF029
:10042000000B5BEA060C08BF4FF0010B19EB0B0940
:10043000ABFB027C48EB0608C01B06FB02CC0BFBA7
:1004400003CC71EB0C01C1E70B460246414648461E
:10045000BDE8F08B13B54FF000004FF00001AFF393
:100460000080BDE81C4070474FF0000200B5134605
:1004700094469646203922BFA0E80C50A0E80C50C4
:10048000B1F12001BFF4F7AF090728BFA0E80C5075
:1004900048BF0CC05DF804EB890028BF40F8042B6E
:1004A00008BF704748BF20F8022B11F0804F18BFDB
:1004B00000F8012B704770477047704770477546CA
:1004C00000F02CF8AE4605006946534620F00700C0
:1004D000854618B020B5FFF73DFFBDE820404FF03E
:1004E00000064FF000074FF000084FF0000B21F01E
:1004F0000701AC46ACE8C009ACE8C009ACE8C009EB
:10050000ACE8C0098D46704710B50446AFF30080D3
:100510002046BDE81040FFF708BF000000487047C4
:10052000C803002440F2E93CC9F2000C604740F6E1
:10053000B96CC9F2000C604740F6AD1CC9F2000C62
:10054000604742F2896CC9F2000C604742F6A11C78
:10055000C9F2000C604742F2797CC9F2000C604796
:1005600042F2BD4CC9F2000C604742F6750CC9F26C
:10057000000C604740F2597CC9F2000C604740F61D
:10058000BD0CC9F2000C604742F2696CC9F2000C64
:10059000604742F29D4CC9F2000C604740F6416C46
:1005A000C9F2000C604700BFFEE770472DE9F0413B
:1005B000044600F025FE804614B90120BDE8F08114
:1005C00094F83500022808D08020606500BF002024
:1005D00084F8340000BF0120F0E7FE49206888421B
:1005E00049D0FC4918312068884244D0F94930315B
:1005F000206888423FD0F7494831206888423AD085
:10060000F44960312068884235D0F2497831206859
:10061000884230D0EF499031206888422BD0ED4994
:10062000A8312068884226D0EB492068884222D031
:10063000E9491831206888421DD0E74930312068E7
:10064000884218D0E44948312068884213D0E249F2
:100650006031206888420ED0DF49783120688842B6
:1006600009D0DD4990312068884204D0DA49A831A8
:100670002068884201D1012000E0002068B1206894
:10068000006820F01E00216808602068406920F0A2
:10069000800021684861256806E02068006820F035
:1006A0000E00216808602568CA492068884270D019
:1006B000C8491831206888426BD0C649303120685B
:1006C000884266D0C34948312068884261D0C14918
:1006D0006031206888425CD0BE4978312068884209
:1006E00057D0BC4990312068884252D0B949A831CE
:1006F000206888424DD0B8492068884249D0B64920
:1007000018312068884244D0B3493031206888428B
:100710003FD0B1494831206888423AD0AE49603173
:100720002068884235D0AC4978312068884230D082
:10073000A9499031206888422BD0A749A831206868
:10074000884226D0A5492068884222D0A349143186
:10075000206888421DD0A14928312068884218D0DD
:100760009E493C312068884213D09C495031206812
:1007700088420ED0994964312068884209D097494F
:1007800078312068884204D094498C3120688842AE
:1007900001D1012000E0002028B1206E006820F483
:1007A0008070216E08608B492068884249D0894951
:1007B00018312068884244D0864930312068884208
:1007C0003FD084494831206888423AD0814960311D
:1007D0002068884235D07F4978312068884230D0FF
:1007E0007C499031206888422BD07A49A831206812
:1007F000884226D078492068884222D0764918312C
:10080000206888421DD0744930312068884218D051
:10081000714948312068884213D06F49603120689F
:1008200088420ED06C4978312068884209D06A49E4
:1008300090312068884204D06749A83120688842F6
:1008400006D12068006820F001002168086005E0FA
:100850002068006820F001002168086011E000F0C5
:10086000CFFCA0EB080005280BD9202060650320F1
:1008700084F8350000BF002084F8340000BF012058
:100880009CE6286800F001000028E8D15149206862
:10089000884249D04F4918312068884244D04D4998
:1008A0003031206888423FD04A4948312068884228
:1008B0003AD0484960312068884235D0454978317E
:1008C0002068884230D043499031206888422BD03C
:1008D0004049A8312068884226D03F492068884294
:1008E00022D03D491831206888421DD03A49303124
:1008F0002068884218D0384948312068884213D08F
:1009000035496031206888420ED0334978312068FB
:10091000884209D0304990312068884204D02E495D
:10092000A8312068884201D1012000E0002040B1B8
:10093000A66D94F85C0000F01F013F208840B06075
:1009400007E0A76D94F85C0000F01F0101208840CB
:10095000786020492068884276D01E491831206886
:10096000884271D01B493031206888426CD01949C7
:1009700048312068884267D0164960312068884233
:1009800062D014497831206888425DD01149903195
:100990002068884258D00F49A8312068884253D037
:1009A0000D49206888424FD00B4918312068884291
:1009B0004AD0094930312068884245D0064948313B
:1009C0002068884240D004496031206888423BD08A
:1009D000014905E01000024010040240085402588A
:1009E0007831206888422FD02549206888422BD052
:1009F000234918312068884226D02249206888423D
:100A000022D020491431206888421DD01D49283148
:100A10002068884218D01B493C312068884213D096
:100A200018495031206888420ED016496431206838
:100A3000884209D0134978312068884204D011498E
:100A40008C312068884201D1012000E0002068B18B
:100A5000D4E919104860E06E40B1E06E006820F4FF
:100A60008070E16E0860D4E91C104860012084F8B1
:100A7000350000BF002084F8340000BF00BF9DE5B2
:100A8000A00402400854025870B504460CB9012075
:100A900070BD94F83500022803D0802060650120E5
:100AA000F6E7DC492068884249D0DA4918312068E5
:100AB000884244D0D7493031206888423FD0D54958
:100AC0004831206888423AD0D24960312068884253
:100AD00035D0D04978312068884230D0CD49903126
:100AE000206888422BD0CB49A8312068884226D084
:100AF000C9492068884222D0C749183120688842F5
:100B00001DD0C54930312068884218D0C2494831CB
:100B10002068884213D0C0496031206888420ED0D6
:100B2000BD4978312068884209D0BB49903120689E
:100B3000884204D0B849A8312068884201D10120F8
:100B400000E00020F0B3042084F83500B1492068AB
:100B500088424BD0AF4918312068884246D0AD4911
:100B600030312068884241D0AA4948312068884203
:100B70003CD0A84960312068884237D0A5497831F7
:100B80002068884232D0A3499031206888422DD015
:100B9000A049A8312068884228D09F49206888420F
:100BA00024D09D491831206888421FD09A4930319D
:100BB000206888421AD0984948312068884215D068
:100BC000954900E020E06031206888420ED09249CB
:100BD00078312068884209D08F4990312068884256
:100BE00004D08D49A8312068884206D12068006869
:100BF00020F001002168086009E12068006820F009
:100C000001002168086002E12068006820F00E0001
:100C1000216808607F492068884249D07D491831A1
:100C20002068884244D07B493031206888423FD0D8
:100C300078494831206888423AD076496031206846
:100C4000884235D0734978312068884230D0714964
:100C50009031206888422BD06E49A83120688842A4
:100C600026D06D492068884222D06B49183120680F
:100C700088421DD0684930312068884218D06649C2
:100C800048312068884213D0634960312068884227
:100C90000ED0614978312068884209D05E49903190
:100CA0002068884204D05C49A8312068884206D177
:100CB0002068006820F001002168086005E02068D5
:100CC000006820F0010021680860524920688842CD
:100CD00070D050491831206888426BD04D4930316E
:100CE0002068884266D04B4948312068884261D0EC
:100CF00048496031206888425CD046497831206894
:100D0000884257D0434990312068884252D04149A7
:100D1000A831206888424DD03F492068884249D098
:100D20003D4918312068884244D03B493031206821
:100D300088423FD038494831206888423AD0364905
:100D400060312068884235D0334978312068884244
:100D500030D031499031206888422BD02E49A831BB
:100D60002068884226D02D492068884222D02B490D
:100D70001431206888421DD02849283120688842D3
:100D800018D026493C312068884213D0234950317D
:100D9000206888420ED0214964312068884209D0F9
:100DA0001E4978312068884204D01C498C31206863
:100DB000884201D1012000E00020D8B1206E0068F7
:100DC00020F48070216E0860A56D94F85C0000F03E
:100DD0001F01012088406860D4E919104860E06E66
:100DE00040B1E06E006820F48070E16E0860D4E9E4
:100DF0001C104860012084F8350000BF002084F8F2
:100E0000340000BF206D10B12046216D88470020BE
:100E10003EE6000010000240100402400854025850
:100E20000348006840F00100014908607047000075
:100E300020040058F0B50C460021504B98E00126E4
:100E40008E4006EA0402002A7ED04D4E8F0856F8E6
:100E500027508E07370F0F26BE403540494EB0420F
:100E600001D100262DE0484EB04201D1012628E0F4
:100E7000464EB04201D1022623E0454EB04201D198
:100E800003261EE0434EB04201D1042619E0424E33
:100E9000B04201D1052614E0404EB04201D10626F1
:100EA0000FE03F4EB04201D107260AE03D4EB0426E
:100EB00001D1082605E03C4EB04201D1092600E0F0
:100EC0000A268F073F0FBE40AE421FD11E689643D1
:100ED0001E605E6896435E604FF0B046766896434B
:100EE0004FF0B0477E603E46366896433E608E07C0
:100EF000370F0F2606FA07F5214E8F0856F82760A0
:100F0000AE431F4F4FEA910C47F82C6006684FEA3A
:100F1000410C032707FA0CF73E430660CF0800F1A7
:100F2000200656F827604F074FEAD76C0F2707FABD
:100F30000CF7BE434FEAD10C00F1200747F82C60B4
:100F4000C6684FEA410C00E011E0032707FA0CF7EE
:100F5000BE43C660476801268E40B7434760866837
:100F60004FEA410C032707FA0CF7BE438660491C81
:100F700024FA01F6002E7FF462AFF0BD8000005825
:100F800008040058000002580004025800080258E3
:100F9000000C0258001002580014025800180258A1
:100FA000001C0258002002580024025810B50446C4
:100FB00004480068204020B1024804602046FFF742
:100FC000B1FA10BD88000058F8B502460B46002162
:100FD0006F4DD7E001278F401E6806EA0704002CFA
:100FE00072D01E7906F00306012E04D01E7906F099
:100FF0000306022E13D190684F000326BE40B04373
:101000004F00DE68BE4030439060506801268E403D
:10101000B0431E79C6F300168E40304350601E79EF
:1010200006F00306032E09D0D0684F000326BE4009
:10103000B0434F009E68BE403043D0601E7906F03A
:101040000306022E13D1CF0802F1200656F827001E
:101050004E07F70E0F26BE40B0434F07FF0E1E6926
:10106000BE403043CF0802F1200646F82700106842
:101070004F000326BE40B0431E7906F003064F0022
:10108000BE40304310605E6806F44036002E78D0D3
:1010900000BF404E366846F002063E4F3E603E4678
:1010A000366806F00206009600BF00BF3A4E8F0871
:1010B00056F827008E07370F0F26BE40B043374E35
:1010C000B24202D100262EE05BE0354EB24201D1A1
:1010D000012628E0334EB24201D1022623E0324EEF
:1010E000B24201D103261EE0304EB24201D10426A5
:1010F00019E02F4EB24201D1052614E02D4EB24226
:1011000001D106260FE02C4EB24201D107260AE09B
:101110002A4EB24201D1082605E0294EB24201D141
:10112000092600E00A268F073F0FBE4030431A4EC3
:101130008F0846F827004FF0B0463068A0435E683D
:1011400006F4801606B120434FF0B0463060706858
:10115000A0435E6806F4001606B120434FF0B04687
:1011600070606868A0435E6806F4003606B12043EC
:1011700068602868A0435E6806F4803606B12043A4
:101180002860491C1E68CE40002E7FF423AFF8BDB6
:1011900080000058F4440258080400580000025827
:1011A0000004025800080258000C025800100258AF
:1011B0000014025800180258001C0258002002585F
:1011C00000240258024613690B400BB1012000E0D5
:1011D0000020704710B5426921EA020302EA0104C7
:1011E00043EA0443836110BD0AB1816101E00B044D
:1011F0008361704701480068000C70470010005C74
:10120000014800687047000014000024034800688B
:101210000349097808440149086070471400002414
:101220001C00002410B5052000F00EF901F02CFE82
:1012300010490968C1F303210F4A515C01F01F01F5
:1012400020FA01F40B48006800F00F001146085C1A
:1012500000F01F0024FA00F0084908600848046004
:101260000F2000F00FF808B1012010BD00F09AF82F
:101270000020FAE718440258DE4600080400002463
:101280000000002470B504461148007808B9012018
:1012900070BD0F4800784FF47A71B1FBF0F00D4942
:1012A0000968B1FBF0F5284602F03AFB08B10120CD
:1012B000EEE7102C07D200222146501E00F087F8DE
:1012C0000548046001E00120E2E70020E0E70000BB
:1012D0001C00002400000024180000244178154A56
:1012E00011600178F9B1121D41681160017B090795
:1012F000C27A41EA0261827A41EAC241427B41EA12
:101300008241827B41EA4241C27B41EA0241427A08
:1013100041EA0221027A41EA420102781143054A78
:101320000832116005E00021024A121D1160121DF1
:101330001160704798ED00E000BF00BF00BFBFF331
:101340005F8F00BF00BF00BF0548006820F48030F9
:1013500003490860002002497031086070470000AE
:1013600024ED00E040F001010D4A11600C49703994
:10137000096841F480310A4A703A116000BF00BF29
:1013800000BFBFF34F8F00BF00BF00BF00BF00BF53
:1013900000BFBFF36F8F00BF00BF00BF70470000EA
:1013A00094ED00E070470146084600280DDB00BFC1
:1013B00000BF00F01F0301229A4043099B0003F184
:1013C000E023C3F8002100BF00BF00BF70472DE934
:1013D000F05F80460D46164602F08CFE0746394601
:1013E0002A46334601F00700C0F1070ABAF1040F9C
:1013F00002D94FF0040A01E0C0F1070AD14600F11A
:10140000040ABAF1070F02D24FF0000A01E0A0F17E
:10141000030AD4464FF0010A0AFA09FAAAF1010AAE
:101420000AEA020A0AFA0CFA4FF0010B0BFA0CFB5B
:10143000ABF1010B0BEA030B4AEA0B0421464046D1
:1014400002F060FEBDE8F09F00BF00F00702064B0F
:1014500019684FF6FF031940044B0B4343EA02217E
:10146000014B196000BF70470CED00E00000FA0569
:1014700070B5044615480068C0F3800048B91348A9
:10148000006800F00700A04201D0012070BD0020DC
:10149000FCE70E48006820F0070020430B49086075
:1014A000FFF7AEFE054607E0FFF7AAFE401BB0F5CA
:1014B0007A7F01D90120E9E7044808380068C0F3C1
:1014C00040300028F0D00020E0E700000C4802582F
:1014D0002DE9F84304460E4615469846FFF790FE60
:1014E0008146B06900B100BFF06900B100BF306A49
:1014F00000B100BF00BF94F84000012802D10220D3
:10150000BDE8F883012084F8400000BF94F8410052
:1015100001283AD100206064422084F841004B4603
:10152000002220212046CDF8008002F0CBFB0746A8
:1015300057BB286821688862686821684862A86883
:101540002168C8622068006820F44000296941F4DD
:101550008001084321680860E868B0624FF00062CB
:101560003146204602F0BAFA4B46012208212046B5
:10157000CDF8008002F0A6FB07462FB908202168AD
:10158000C860012084F8410000E0022700BF00206D
:1015900084F8400000BF3846B2E72DE9F84304461E
:1015A0000D461746FFF72CFE8046A86900B100BF24
:1015B000E86900B100BF286A00B100BF00BF94F81D
:1015C0004000012802D10220BDE8F883012084F800
:1015D000400000BF94F84100012828D10020606439
:1015E000022084F841004346002220212046009733
:1015F00002F068FB0646DEB900222946204602F0CA
:101600006DFA686A78B943460122022120460097A4
:1016100002F058FB06465EB902202168C86001202E
:1016200084F8410004E0012084F8410000E0022633
:1016300000BF002084F8400000BF3046C4E710B56A
:1016400004460CB9012010BD2068006820F001009C
:1016500021680860204600F0B5F80020606484F836
:10166000410000BFEFE70000F8B50446FFF7C8FDF2
:1016700006460CB90120F8BD206A402800D000BF02
:1016800094F8410038B9204600F0B8F841F28831AA
:10169000204600F027F92068006820F4F851A0687F
:1016A000401E41EA002021680860A06C33460022F9
:1016B00020210090204602F005FB054635BB21792C
:1016C000E06840EA0160E1690843216A0843216853
:1016D00009680F4A1140084321680860208A61693F
:1016E00041EA0040A169084321684968094A11405C
:1016F0000843216848602068006840F001002168C4
:10170000086000206064012084F841002846B2E7A8
:101710002FFFFF00FEF8E0FF2DE9F84304460D46D9
:101720001646FFF76DFD8046A86900B100BFE86965
:1017300000B100BF286A00B100BF00BF94F84000AC
:10174000012802D10220BDE8F883012084F840007E
:1017500000BF94F8410001282CD100206064822051
:1017600084F84100A06C43460022202100902046CE
:1017700002F0A8FA0746F7B92068006820F00800D0
:101780007168084321680860706808280BD13068C8
:101790002168086310202168C8602068006840F450
:1017A0008010216808604FF040622946204602F010
:1017B00095F900E0022700BF002084F8400000BF38
:1017C0003846C0E710B504460949206888420ED162
:1017D0000848006820F48040064908604421064813
:1017E000FFF728FB4FF470710348FFF723FB10BD90
:1017F00000500052D44402580004025810B586B07C
:10180000044633492068884260D13248D0E900104C
:101810004FF0007319432F4AC2E90010002011460F
:10182000C864084600F0A2FA00BF2B48006840F4E4
:101830008040294908600846006800F48040009014
:1018400000BF00BF00BF24480C30006840F0020019
:1018500021490C3108600846006800F00200009041
:1018600000BF00BF00BF0846006840F020000860CD
:101870000846006800F02000009000BF00BF402034
:1018800001900220029003200490012003900A207E
:10189000059001A91148FFF797FB0420019009204A
:1018A000059001A90D48FFF78FFBC020019009208A
:1018B000059001A90A48FFF787FB4FF4407001909B
:1018C0000A20059001A90648FFF77EFB06B010BD6F
:1018D0000050005230000024D44402580004025842
:1018E000001402588164704710B501F083FA05496D
:1018F0000968C1F30211044A515C01F01F01C8409C
:1019000010BD000020440258DE46000870B50146B4
:10191000844D2D6805F00303824D2D68C5F3053015
:10192000804D2D1D2D68C5F300147E4D14352D6896
:10193000C5F3CC0515FB04F501EE105AB8EE411ABB
:10194000F0EE410A00286FD023B1012B4ED0022BBC
:101950006BD16BE0734D283D2D68C5F340153DB349
:10196000704D283D2D68C5F3C1066F4D25FA06F26E
:1019700001EE102AF8EE411A01EE100AB8EE411AF3
:1019800081EE812A9FED691AC0EE811A654D1035EE
:101990002D68C5F3080501EE105AB8EE411A31EE74
:1019A000811AF7EE001A31EE211A22EE010A1CE02C
:1019B00001EE100AB8EE411ADFED5D1A81EE812AC0
:1019C0009FED5A1AC0EE811A564D10352D68C5F399
:1019D000080501EE105AB8EE411A31EE811AF7EE01
:1019E000001A31EE211A22EE010A5BE001EE100A24
:1019F000B8EE411ADFED4F1A81EE812A9FED4B1AA6
:101A0000C0EE811A474D10352D68C5F3080501EE6B
:101A1000105AB8EE411A31EE811AF7EE001A31EE83
:101A2000211A22EE010A3DE077E01DE001EE100AE6
:101A3000B8EE411A9FED402AC2EE011A9FED3B1A03
:101A400080EE812A374D10352D68C5F3080501EE6B
:101A5000105AB8EE411A32EE011AB7EE002A31EEF2
:101A6000021A21EE810A1DE001EE100AB8EE411AB9
:101A7000DFED301A81EE812A9FED2C1AC0EE811A1B
:101A8000284D10352D68C5F3080501EE105AB8EE43
:101A9000411A31EE811AF7EE001A31EE211A22EEC8
:101AA000010A00BF00BF1F4D10352D68C5F3462544
:101AB00001EE105AB8EE411AF7EE001A31EE211A73
:101AC000C0EE011ABCEEE11A81ED001A154D103579
:101AD0002D68C5F3064501EE105AB8EE411AF7EE2F
:101AE000001A31EE211AC0EE011ABCEEE11A81EDA6
:101AF000011A0C4D10352D68C5F3066501EE105A1C
:101B0000B8EE411AF7EE001A31EE211AC0EE011AB2
:101B1000BCEEE11A81ED021A03E000250D604D6074
:101B20008D6070BD284402580090D003000000462C
:101B30000024744C0024744A20BCBE4B70B501468E
:101B4000844D2D6805F00303824D2D68C5F30550C3
:101B5000804D2D1D2D68C5F300247E4D1C352D684C
:101B6000C5F3CC0515FB04F501EE105AB8EE411A89
:101B7000F0EE410A00286FD023B1012B4ED0022B8A
:101B80006BD16BE0734D283D2D68C5F340153DB317
:101B9000704D283D2D68C5F3C1066F4D25FA06F23C
:101BA00001EE102AF8EE411A01EE100AB8EE411AC1
:101BB00081EE812A9FED691AC0EE811A654D1835B4
:101BC0002D68C5F3080501EE105AB8EE411A31EE42
:101BD000811AF7EE001A31EE211A22EE010A1CE0FA
:101BE00001EE100AB8EE411ADFED5D1A81EE812A8E
:101BF0009FED5A1AC0EE811A564D18352D68C5F35F
:101C0000080501EE105AB8EE411A31EE811AF7EECE
:101C1000001A31EE211A22EE010A5BE001EE100AF1
:101C2000B8EE411ADFED4F1A81EE812A9FED4B1A73
:101C3000C0EE811A474D18352D68C5F3080501EE31
:101C4000105AB8EE411A31EE811AF7EE001A31EE51
:101C5000211A22EE010A3DE077E01DE001EE100AB4
:101C6000B8EE411A9FED402AC2EE011A9FED3B1AD1
:101C700080EE812A374D18352D68C5F3080501EE31
:101C8000105AB8EE411A32EE011AB7EE002A31EEC0
:101C9000021A21EE810A1DE001EE100AB8EE411A87
:101CA000DFED301A81EE812A9FED2C1AC0EE811AE9
:101CB000284D18352D68C5F3080501EE105AB8EE09
:101CC000411A31EE811AF7EE001A31EE211A22EE96
:101CD000010A00BF00BF1F4D18352D68C5F346250A
:101CE00001EE105AB8EE411AF7EE001A31EE211A41
:101CF000C0EE011ABCEEE11A81ED001A154D18353F
:101D00002D68C5F3064501EE105AB8EE411AF7EEFC
:101D1000001A31EE211AC0EE011ABCEEE11A81ED73
:101D2000011A0C4D18352D68C5F3066501EE105AE1
:101D3000B8EE411AF7EE001A31EE211AC0EE011A80
:101D4000BCEEE11A81ED021A03E000250D604D6042
:101D50008D6070BD284402580090D00300000046FA
:101D60000024744C0024744A20BCBE4B2DE9F04181
:101D700004460025A8464FF00062D4E90010114047
:101D80000020134659404040014331D1A06E48B174
:101D9000B0F5801F0DD0B0F5001F11D0B0F5401F79
:101DA00016D114E0F948006840F40030F7490860A3
:101DB00010E0022104F1080001F0AAFF054609E045
:101DC000022104F1280002F055F8054602E001E086
:101DD000012500BF00BF55B9EC482430006820F44D
:101DE0004010A16E0843E9492431086000E0A8468C
:101DF0004FF48073D4E9001019400020594040404E
:101E000001432ED1A06D05281BD2DFE800F0030AA4
:101E100011181900DD48006840F40030DB49086003
:101E200011E0002104F1080001F072FF05460AE00C
:101E3000002104F1280002F01DF8054603E002E04D
:101E400001E0012500BF00BF55B9D048243000682B
:101E500020F00700A16D0843CC492431086000E060
:101E6000A8464FF40073D4E90010194000205940EF
:101E70004040014334D1E06D802818D003DC40B1EC
:101E800040281DD10CE0C02818D0B0F5807F17D1B4
:101E900015E0BE48006840F40030BC49086011E01D
:101EA000002104F1080001F033FF05460AE000219B
:101EB00004F1280001F0DEFF054603E002E001E046
:101EC000012500BF00BF55B9B0482430006820F498
:101ED000E070E16D0843AD492431086000E0A84698
:101EE0004FF48063D4E9001019400020594040406D
:101EF000014339D1D4F8A800B0F5800F1AD004DC22
:101F000050B1B0F5001F1ED10DE0B0F5C00F18D0D4
:101F1000B0F5000F17D115E09C48006840F4003080
:101F20009A49086011E0002104F1080001F0F0FE78
:101F300005460AE0002104F1280001F09BFF054658
:101F400003E002E001E0012500BF00BF5DB98F485A
:101F50002C30006820F46000D4F8A81008438B49A6
:101F60002C31086000E0A8464FF40062D4E900106C
:101F700011400020134659404040014339D1D4F864
:101F8000AC00B0F1007F1AD004DC50B1B0F1807F1A
:101F90001ED10DE0B0F1407F18D0B0F1806F17D1A5
:101FA00015E07A48006840F400307849086011E094
:101FB000002104F1080001F0ABFE05460AE0002113
:101FC00004F1280001F056FF054603E002E001E0BD
:101FD000012500BF00BF5DB96C482C30006820F0BF
:101FE000E060D4F8AC10084368492C31086000E088
:101FF000A8464FF00073D4E9000118400021584072
:102000004940084328D1E06CA8B1102804D020280A
:1020100009D0302810D10DE05C48006840F4003051
:102020005A4908600AE0022104F1080001F070FE3C
:10203000054603E002E001E0012500BF00BF55B9FD
:1020400052482030006820F03000E16C08434F49CE
:102050002031086000E0A8464FF48053D4E9001016
:102060001940002059404040014337D1206EB0F55F
:10207000005F1AD004DC50B1B0F5805F1ED10DE0D6
:10208000B0F5405F18D0B0F5804F17D115E03F484C
:10209000006840F400303D49086011E0002104F17F
:1020A000080001F035FE05460AE0002104F1280091
:1020B00001F0E0FE054603E002E001E0012500BF7B
:1020C00000BF55B931482430006820F4E040216E4B
:1020D00008432E492431086000E0A8464FF400531D
:1020E000D4E900101940002059404040014335D147
:1020F000606EB0F5403F1ED007DC68B1B0F5803FA0
:102100000BD0B0F5003F19D10EE0B0F5802F13D001
:10211000B0F5A02F12D110E012E0012104F1080067
:1021200001F0F6FD05460BE0012104F1280001F065
:10213000A1FE054604E003E002E001E0012500BF46
:1021400000BF55B911482430006820F4E020616ECA
:1021500008430E492431086000E0A8464FF480434C
:10216000D4E900011840002158404940084337D1C4
:10217000D4F8B000B0F1405F20D009DC78B1B0F104
:10218000805F0DD0B0F1005F1BD110E02C440258ED
:10219000B0F1804F13D0B0F1A04F12D110E012E097
:1021A000012104F1080001F0B3FD05460BE0012117
:1021B00004F1280001F05EFE054604E003E002E0C1
:1021C00001E0012500BF00BF4DB9FE48006820F0C6
:1021D000E040D4F8B0100843FA49086000E0A8468F
:1021E0004FF40042D4E9001011400020134659403A
:1021F0004040014329D1206FB0B1B0F1805F03D0DE
:10220000B0F1005F11D108E0EE482C38006840F4CE
:102210000030EC492C39086009E0012104F1080084
:1022200001F076FD054602E001E0012500BF00BF98
:1022300055B9E4480838006820F04050216F084341
:10224000E0490839086000E0A8464FF08072D4E900
:1022500000101140002013465940404001432AD14C
:10226000A06CB8B1012804D002280BD0032812D1E9
:102270000FE0D4482C38006840F40030D1492C39A4
:1022800008600AE0022104F1080001F041FD054662
:1022900003E002E001E0012500BF00BF55B9C948D5
:1022A0000C38006820F00300A16C0843C5490C39C4
:1022B000086000E0A8464FF48002D4E90001104015
:1022C000002113465840494008437DD1BE4800686C
:1022D00040F48070BC490860FEF792FF064606E0B5
:1022E000FEF78EFF801B642801D9032505E0B64860
:1022F000006800F480700028F2D000BF85BBB148B0
:102300001830006800F44070B4F8B41001F4407163
:10231000884213D0AB481830006820F44077A948B1
:102320001830006840F48030A6491831086008462B
:10233000006820F48030086008460760D4F8B400D4
:10234000B0F5807F15D1FEF75BFF064609E0FEF78A
:1023500057FF801B41F28831884202D9032507E0EC
:1023600038E0984818300068C0F340000028EED0EC
:1023700000BF55BB00BFB4F8B40000F44070B0F526
:10238000407F0ED18F484838006820F47C518F4A36
:10239000D4F8B400104041EA10108A494839086066
:1023A00007E088484838006820F47C50854948395F
:1023B0000860844818300068B4F8B410C1F30B0109
:1023C00008438049183101E005E001E0086002E0BF
:1023D000A84600E0A8460122D4E9000110400021EF
:1023E000134658404940084330D1E06F18281AD0AE
:1023F00005DC48B1082808D0102817D10CE02028A7
:1024000012D0282812D110E012E0012104F10800B6
:1024100001F07EFC05460BE0012104F1280001F0EB
:1024200029FD054604E003E002E001E0012500BFCC
:1024300000BF55B96348001F006820F03800E16F05
:1024400008436049091F086000E0A8460222D4E959
:10245000000110400021134658404940084329D14B
:10246000A06F062816D2DFE800F003040B12131445
:1024700012E0012104F1080001F04AFC05460BE0DE
:10248000012104F1280001F0F5FC054604E003E019
:1024900002E001E0012500BF00BF55B94948001F17
:1024A000006820F00700A16F08434649091F086033
:1024B00000E0A8460423D4E9001019400020594048
:1024C0004040014329D1D4F89400062816D2DFE811
:1024D00000F003040B12131412E0012104F10800B0
:1024E00001F016FC05460BE0012104F1280001F083
:1024F000C1FC054604E003E002E001E0012500BF65
:1025000000BF4DB92F48006820F00700D4F89410A0
:1025100008432C49086000E0A8462023D4E90001C4
:102520001840002158404940084337D1D4F8900062
:10253000B0F1405F1ED007DC68B1B0F1805F0BD016
:10254000B0F1005F19D10EE0B0F1804F13D0B0F1BF
:10255000A04F12D110E012E0002104F1080001F0B8
:10256000D7FB05460BE0022104F1280001F082FCB4
:10257000054604E003E002E001E0012500BF00BFE2
:102580005DB91048001F006820F0E040D4F89010BA
:1025900008430C49091F086000E0A8464023D4E91D
:1025A0000010194000205940404001433CD1D4F86C
:1025B0009C00B0F5406F25D00EDCA0B1B0F5806F67
:1025C00012D005E05844025800480258FFFCFF0FA3
:1025D000B0F5006F19D10EE0B0F5805F13D0B0F503
:1025E000A05F12D110E012E0002104F1080001F018
:1025F0008FFB05460BE0022104F1280001F03AFCB4
:10260000054604E003E002E001E0012500BF00BF51
:102610004DB9FE48006820F4E050D4F89C100843FF
:10262000FA49086000E0A8468023D4E90010194068
:10263000002059404040014335D1D4F8A000B0F506
:10264000C04F1ED007DC68B1B0F5005F0BD0B0F50D
:10265000804F19D10EE0B0F5004F13D0B0F5204FE8
:1026600012D110E012E0002104F1080001F050FB4B
:1026700005460BE0022104F1280001F0FBFB0546B2
:1026800004E003E002E001E0012500BF00BF4DB916
:10269000DE48006820F46040D4F8A0100843DB490D
:1026A000086000E0A8460823D4E900101940002083
:1026B00059404040014317D1D4F88400B0F5805F01
:1026C00007D1022104F1280001F0D4FB08B14FF03A
:1026D0000108CE48001F006820F44050D4F8841050
:1026E0000843CA49091F08601023D4E900101940A3
:1026F000002059404040014315D1D4F89800B0F56E
:10270000807F07D1022104F1280001F0B3FB08B15A
:102710004FF00108BD48006820F44070D4F89810CC
:102720000843BA4908604FF40022D4E90001104080
:102730000021134658404940084327D1D4F8A4004B
:1027400030B1B0F5803F0AD0B0F5003F0FD10DE0B9
:10275000002104F1080001F0DBFA054609E002213E
:1027600004F1280001F086FB054602E001E00125A6
:1027700000BF00BF4DB9A548006820F44030D4F830
:10278000A4100843A149086000E0A8464FF4802344
:10279000D4E90001184000215840494008432DD198
:1027A000D4F88800B0F5801F06D0B0F5001F0CD01B
:1027B000B0F5401F11D10FE094482C38006840F468
:1027C000003092492C39086009E0012104F1280009
:1027D00001F050FB054602E001E0012500BF00BF0B
:1027E0005DB98A48001F006820F44010D4F88810B2
:1027F00008438649091F086000E0A8464FF480326C
:10280000D4E90001104000211346584049400843D4
:1028100025D1206D18B1B0F5803F10D108E07B487C
:102820002C38006840F4003078492C39086008E002
:10283000022104F1080001F06BFA054601E00125D0
:1028400000BF00BF55B971480C38006820F48030D3
:10285000216D08436D490C39086000E0A8464FF02F
:102860000052D4E900101140002013465940404066
:10287000014307D1022104F1280001F0FBFA08B15D
:102880004FF001084FF40033D4E900011840002153
:1028900058404940084329D1D4F88000A0B1B0F590
:1028A000807F06D0B0F5007F0CD0B0F5407F0CD112
:1028B00009E056482C38006840F4003053492C3960
:1028C000086004E003E002E001E0012500BF00BF72
:1028D0005DB94E48001F006820F44070D4F88010A5
:1028E00008434A49091F086000E0A8464FF48012D7
:1028F000D4E90010114000201346594040400143E4
:1029000009D142480838006820F00040616F084350
:102910003E49083908604FF08052D4E90010114058
:10292000002013465940404001430AD137484838F7
:10293000006820F48040D4F8B8100843334948397F
:1029400008604FF40012D4E9001011400020134633
:1029500059404040014309D12C480838006820F014
:102960008070E16E08432949083908604FF08042C1
:10297000D4E9001011400020134659404040014363
:1029800011D100BF21484838006820F400401F4999
:102990004839086008460068D4F8BC1008431B4951
:1029A0004839086000BF4FF00042D4E900101140E0
:1029B0000020134659404040014309D113480C38C8
:1029C000006820F04050616D084310490C390860E0
:1029D0004FF40002D4E90010114000201346594082
:1029E000404001430AD10948001F006820F440001C
:1029F000D4F88C1008430549091F08600123002101
:102A00006068184001224940504001E05844025893
:102A1000014306D104F1080001F07AF9054605B139
:102A2000A8460222002160681040494050400143FE
:102A300007D1012104F1080001F06AF9054605B14A
:102A4000A8460423002061681940042240405140F8
:102A5000084307D1022104F1080001F059F90546A5
:102A600005B1A846082300216068184008224940A3
:102A70005040014306D104F1280001F0FBF905465E
:102A800005B1A8461022002160681040494050401E
:102A9000014307D1012104F1280001F0EBF90546BB
:102AA00005B1A846202200206168114040405140F5
:102AB000084307D1022104F1280001F0DBF90546A3
:102AC00005B1A846B8F1000F02D10020BDE8F081A1
:102AD0000120FBE72DE9F04104460D4614B9012021
:102AE000BDE8F081BD48006800F00F00A8420ED29A
:102AF000BA48006820F00F002843B849086008462B
:102B0000006800F00F00A84201D00120E8E720781B
:102B100000F0040004280ED1B1492069096801F0D1
:102B20007001884207D9AE48006820F07000216922
:102B30000843AB490860207800F00800082811D14C
:102B4000A749091D6069096801F07001884209D927
:102B5000A348001D006820F0700061690843A04987
:102B6000091D0860207800F01000102811D19C4940
:102B7000091DA069096801F4E061884209D99848F3
:102B8000001D006820F4E060A16908439449091D14
:102B90000860207800F02000202811D190490831E9
:102BA000E069096801F07001884209D98C48083051
:102BB000006820F07000E169084389490831086025
:102BC000207800F0020002280ED18549E0680968EB
:102BD00001F00F01884207D98148006820F00F00FA
:102BE000E16808437E490860207800F00100002871
:102BF00050D07B48006820F47060A1680843784991
:102C000008606068022807D1754818380068C0F36A
:102C10004040F8B9012063E76068032807D1704895
:102C200018380068C0F34060A0B9012058E7606818
:102C3000012807D16A4818380068C0F3002048B955
:102C400001204DE7664818380068C0F3800008B9D5
:102C5000012045E762480838006820F007006168F5
:102C600008435F4908390860FEF7CAFA064608E0DB
:102C7000FEF7C6FA801B41F28831884201D9032051
:102C80002EE757480838006800F038006168B0EB5C
:102C9000C10FEDD1207800F0020002280ED150497A
:102CA000E068096801F00F01884207D24C480068CB
:102CB00020F00F00E1680843494908604748006870
:102CC00000F00F00A8420ED94448006820F00F0021
:102CD0002843424908600846006800F00F00A842F7
:102CE00001D00120FCE6207800F0040004280ED179
:102CF0003B492069096801F07001884207D23848D1
:102D0000006820F070002169084335490860207888
:102D100000F00800082811D13149091D60690968CF
:102D200001F07001884209D22D48001D006820F092
:102D30007000616908432A49091D0860207800F085
:102D40001000102811D12649091DA069096801F455
:102D5000E061884209D22248001D006820F4E0604A
:102D6000A16908431E49091D0860207800F0200071
:102D7000202811D11A490831E069096801F0700171
:102D8000884209D216480830006820F07000E169D6
:102D9000084313490831086000F076F810490968C3
:102DA000C1F303210F4A515C01F01F0120FA01F722
:102DB0000B48006800F00F001146085C00F01F008F
:102DC00027FA00F0084908600848076008480068CA
:102DD000FEF758FA8046404682E600000020005286
:102DE00018440258DE4600080400002400000024B5
:102DF0001800002410B500F047F80D490968C1F328
:102E000003210C4A515C01F01F0120FA01F408482B
:102E1000006800F00F001146085C00F01F0024FA63
:102E200000F005490860054804600846006810BDC8
:102E300018440258DE460008040000240000002464
:102E400000B5FFF7D7FF05490968C1F30211044A2D
:102E5000515C01F01F01C84000BD00001C44025835
:102E6000DE46000800B5FFF7C5FF05490968C1F354
:102E70000221044A515C01F01F01C84000BD00005E
:102E80001C440258DE460008F0B5824E366806F053
:102E9000380636B1082E15D0102E15D0182E7DD13B
:102EA00014E07C4E103E3668C6F3401646B1794EAB
:102EB000103E3668C6F3C107774E26FA07F000E0E9
:102EC0007548E5E07548E3E07548E1E0714E183675
:102ED000366806F003046F4E18363668C6F30511DF
:102EE0006C4E1C36366806F001056A4E243636688C
:102EF000C6F3CC0616FB05F601EE106AB8EE410AE1
:102F0000002971D024B1012C50D0022C6DD16DE07C
:102F1000604E103E3668C6F340163EB35D4E103E1E
:102F20003668C6F3C1075C4E26FA07F301EE103A85
:102F3000F8EE411A01EE101AB8EE411A81EE812A1C
:102F40009FED581AC0EE011A524E20363668C6F36D
:102F5000080601EE106AB8EE411A31EE811AF7EE5A
:102F6000001A31EE211A62EE010A1EE001EE101A7B
:102F7000B8EE411ADFED4C1A81EE812A9FED491A15
:102F8000C0EE011A434E20363668C6F3080601EE3D
:102F9000106AB8EE411A31EE811A00E076E0F7EEE1
:102FA000001A31EE211A62EE010A5BE001EE101AFE
:102FB000B8EE411A9FED3D2AC2EE011A9FED391A73
:102FC00080EE012A334E20363668C6F3080601EE3D
:102FD000106AB8EE411A32EE011AB7EE002A31EE4D
:102FE000021A61EE810A3DE04EE01DE001EE101A8A
:102FF000B8EE411ADFED2E1A81EE812A9FED291AD3
:10300000C0EE011A234E20363668C6F3080601EEDC
:10301000106AB8EE411A31EE811AF7EE001A31EE5D
:10302000211A62EE010A1DE001EE101AB8EE411AF3
:103030009FED1E2AC2EE011A9FED1A1A80EE012A98
:10304000144E20363668C6F3080601EE106AB8EE54
:10305000411A32EE011AB7EE002A31EE021A61EE81
:10306000810A00BF00BF0B4E20363668C6F34626E5
:10307000721C01EE102AB8EE411AC0EE811ABCEEA5
:10308000E11A11EE100A00E0002001E0034800BF41
:1030900000BFF0BD104402580090D00300093D006D
:1030A00040787D01000000460024744C0024744ADE
:1030B00020BCBE4B2DE9F047044614B90120BDE801
:1030C000F087207800F00100002870D0FA480068EE
:1030D00000F03808F8481830D0F80090B8F1100F18
:1030E00006D0B8F1180F0FD109F0030002280BD158
:1030F000F14810380068C0F3404000286AD060688A
:10310000002867D10120DAE700BF6068B0F5803F92
:1031100008D1E9481038006840F48030E649103999
:1031200008602EE0606868B9E3481038006820F451
:103130008030E149103908600846006820F480209A
:1031400008601EE06068B0F5A02F0DD1DA48103895
:10315000006840F48020D8491039086008460068AB
:1031600040F4803008600CE0D3481038006820F448
:103170008030D149103908600846006820F480206A
:10318000086000BF606898B1FEF73AF8054606E0AF
:10319000FEF736F8401B642801D903208FE7C648A4
:1031A00010380068C0F340400028F1D012E012E06F
:1031B000FEF726F8054606E0FEF722F8401B6428D5
:1031C00001D903207BE7BC4810380068C0F34040B9
:1031D0000028F1D100BF207800F00200022874D14D
:1031E000B548006800F03808B3481830D0F80090AF
:1031F000B8F1000F05D0B8F1180F56D109F003004F
:10320000D0BBAD4810380068C0F3800018B1E0684A
:1032100008B9012053E7A8481038006820F01900C9
:10322000E1680843A44910390860FDF7E9FF054645
:1032300006E0FDF7E5FF401B022801D903203EE729
:103240009D4810380068C0F380000028F1D000BF0E
:10325000FDF7D0FF41F2030188421AD820694028C7
:103260000BD195480C38006820F47C3040F40030D5
:1032700091490C39086017E017E08F480C38006856
:1032800020F47C30216940EA01308B490C39086018
:103290000AE089480C38006820F0FE40217C40EAB2
:1032A000016085490C39086066E0E06888B38248AF
:1032B0001038006820F01900E16808437E49103991
:1032C0000860FDF79DFF054607E056E0FDF798FF13
:1032D000401B022801D90320F1E677481038006826
:1032E000C0F380000028F1D000BFFDF783FF41F25A
:1032F000030188421AD8206940280BD16E480C3847
:10330000006820F47C3040F400306B490C390860D0
:1033100017E017E068480C38006820F47C30216919
:1033200040EA013064490C3908600AE062480C3810
:10333000006820F0FE40217C40EA01605E490C39C3
:10334000086019E05C481038006820F001005A4914
:1033500010390860FDF754FF054606E0FDF750FF01
:10336000401B022801D90320A9E653481038006801
:10337000C0F380000028F1D100BF207800F01000D9
:1033800010287CD14C48006800F038084A481830B2
:10339000D0F80090B8F1080F06D0B8F1180F3DD161
:1033A00009F00300012839D1434810380068C0F300
:1033B000002020B1E069802801D001207FE600BF15
:1033C000FDF718FF41F2030188421AD8206A20282D
:1033D0000AD139480C38006820F0F84040F08040AD
:1033E00035490C39086018E033480C38006820F083
:1033F000F84094F8201040EA81602F490C390860A9
:103400000BE02D48001F006820F07C5094F820103D
:1034100040EA01602849091F086066E0E06978B366
:1034200025481038006840F08000234910390860B2
:10343000FDF7E6FE054606E0FDF7E2FE401B02282A
:1034400001D903203BE61C4810380068C0F3002077
:103450000028F1D000BFFDF7CDFE41F20301884204
:103460001CD8206A20280CD113480C38006820F0A2
:10347000F84040F0804010490C3908601AE035E00F
:103480001CE00D480C38006820F0F84094F820103B
:1034900040EA816008490C3908600BE00648001FCB
:1034A000006820F07C5094F8201040EA0160024946
:1034B000091F086019E0000010440258FA4800682B
:1034C00020F08000F8490860FDF79AFE054606E006
:1034D000FDF796FE401B022801D90320EFE5F248D4
:1034E0000068C0F300200028F2D100BF207800F06F
:1034F0000800082836D16069D0B1EB487430006804
:1035000040F00100E84974310860FDF779FE054696
:1035100006E0FDF775FE401B022801D90320CEE529
:10352000E14874300068C0F340000028F1D019E091
:10353000DD487430006820F00100DB497431086018
:10354000FDF75EFE054606E0FDF75AFE401B022829
:1035500001D90320B3E5D44874300068C0F34000BB
:103560000028F1D1207800F02000202830D1A06977
:10357000B8B1CD48006840F48050CB490860FDF7F1
:103580003FFE054606E0FDF73BFE401B022801D941
:10359000032094E5C4480068C0F340300028F2D00E
:1035A00016E0C148006820F48050BF490860FDF76C
:1035B00027FE054606E0FDF723FE401B022801D941
:1035C00003207CE5B8480068C0F340300028F2D101
:1035D000207800F0040004287DD1B448006840F44D
:1035E0008070B2490860FDF70BFE054606E0FDF766
:1035F00007FE401B642801D9032060E5AB48006842
:1036000000F480700028F2D000BFA068012808D123
:10361000A5487030006840F00100A349703108608F
:103620002DE0A06868B9A0487030006820F0010063
:103630009D49703108600846006820F00400086069
:103640001DE0A06805280DD197487030006840F053
:1036500004009549703108600846006840F0010098
:1036600008600CE090487030006820F001008E493E
:10367000703108600846006820F00400086000BF50
:10368000A068A0B1FDF7BCFD054608E0FDF7B8FD58
:10369000401B41F28831884201D903200FE582485E
:1036A00070300068C0F340000028EFD013E0FDF751
:1036B000A7FD054608E0FDF7A3FD401B41F2883158
:1036C000884201D90320FAE4774870300068C0F3DB
:1036D00040000028EFD1606A00287DD07248103089
:1036E000006800F03800182877D0606A022875D189
:1036F0006D48006820F080706B490860FDF780FD20
:10370000054606E0FDF77CFD401B022801D9032099
:10371000D5E465480068C0F340600028F2D100BFDE
:10372000D4E90A1041EA00105F492831096840F2E3
:10373000F332914308435C4928310860208E401ED3
:10374000C0F30800616B491E4FF47E4202EA41213A
:103750000843218F491ED20102EA014108433C215E
:10376000095D491E120202EA016108434E493031E7
:10377000086000BF081F006820F00100091F0860F2
:103780004948343000684FF6F8718843A16C40EA2C
:10379000C10045493431086043482C30006820F0AE
:1037A0000C00216C084340492C3108600846006831
:1037B00020F00200616C08433B492C310860084648
:1037C000006840F4803008600846006840F400302B
:1037D00008600846006802E093E038E01FE040F42B
:1037E000802008600846006840F0010008602E480C
:1037F000006840F080702C490860FDF701FD054627
:1038000006E0FDF7FDFC401B022801D9032056E429
:1038100025480068C0F340600028F2D071E02248DB
:10382000006820F0807020490860FDF7E9FC05463B
:1038300006E0FDF7E5FC401B022801D903203EE429
:1038400019480068C0F340600028F2D159E01648DA
:1038500028300768144830300668606A012821D093
:1038600007F00301A06A81421CD1C7F30511E06A89
:10387000884217D1C6F30801206B401E814211D146
:10388000606B401EC6F3462188420BD1A06B401EE0
:10389000C6F30641884205D1E06B401EC6F30661BF
:1038A000884205D001200AE400440258004802582A
:1038B00015480068C0F3CC07A06CB84221D012486C
:1038C0000838006820F001000F4908390860FDF74A
:1038D00097FC054600BFFDF793FC401BFBD00A4850
:1038E00000684FF6F8718843A16C40EAC1000649B0
:1038F000086005480838006840F0010002490839AE
:10390000086000204AE40000344402580349096872
:1039100021F002010143014A116070472004005860
:1039200070B504462546681EB0F1807F01D30120A2
:103930000FE0681E4FF0E02148610F214FF0FF308B
:1039400000F0E0FB00204FF0E021886107200861D3
:10395000002070BD10B586B0044632492068884208
:103960005ED13148D0E90010012319432E4AC2E943
:10397000001000201146C8670846FEF7F7F900BF9F
:1039800000BF2A48006840F0100028490860084637
:10399000006800F01000009000BF00BF00BF00BF33
:1039A00000BF22481038006840F001001F4910395C
:1039B00008600846006800F00100009000BF00BFEA
:1039C00000BF00BF00BF0846006840F0010008606B
:1039D0000846006800F00100009000BF00BF00BF73
:1039E0004FF4007001900220029001200390022009
:1039F00004900720059001A90D48FDF7E5FA4FF462
:103A0000806001900720059001A90948FDF7DCFAC4
:103A10002520FDF7C8FC032211462520FDF7D7FC21
:103A200006B010BD0010014030000024F0440258E0
:103A30000000025810B504462049206888423BD156
:103A40001F48008800F4004088BB1D48008800F42F
:103A5000804070B11B4800780A2803D00020184924
:103A6000088024E01648008840F40040144908808B
:103A70001DE0144800780D2806D11148008840F454
:103A800080400F49088012E00E4800780C490988F0
:103A9000C1F30D010C4A505409480088401C0849E4
:103AA000088008460088C72801DD00200880012220
:103AB00004490648FCF73BFD10BD00000010014022
:103AC0001000002412000024F0000024B80100249B
:103AD00000BFFEE700BFFEE77047704710B54B6AB6
:103AE00033B1B2F1406F03D08B6A5B1E046823616F
:103AF0008B69002B76D00B6AE3B38B680468E361B3
:103B0000CB69FBB1D1E90B3423434C6B23434C6AA3
:103B100023438C8A43EA84430C6923430C6A23437E
:103B2000CC682343CC6923438C6923430C6823432B
:103B3000134304686361B2F1406F02D04B680468BC
:103B4000A361BEE0D1E90B3423434C6B23434C6AA1
:103B500023438C8A43EA84430C6923430C6A23433E
:103B6000CC6923438C6923430C68234313430468C3
:103B70006361A6E0FFE7CB69EBB1D1E90B342343E6
:103B80004C6B23434C6A23438C8A43EA84430C6A7C
:103B90002343CC682343CC6923438C6923430C68BB
:103BA0002343134304686361B2F1406FC9D04B688B
:103BB0000468A36185E0D1E90B3423434C6B2343B4
:103BC0004C6A23438C8A43EA84430C6A2343CC69BE
:103BD00023438C6923430C682343134304686361C4
:103BE0006FE0FFE70B6AC3B38B680468E361CB69DE
:103BF000EBB1D1E90B3423434C6B23434C6A234391
:103C00008C8A43EA84430C6923430C6A2343CC68BF
:103C10002343CC6923438C692343134304686361C2
:103C2000B2F1406F4DD04B680468A36149E0D1E91F
:103C30000B3423434C6B23434C6A23438C8A43EA63
:103C400084430C6923430C6A2343CC6923438C6966
:103C5000234313430468636133E0FFE7CB69DBB1BF
:103C6000D1E90B3423434C6B23434C6A23438C8AA6
:103C700043EA84430C6A2343CC682343CC6923433F
:103C80008C692343134304686361B2F1406F18D019
:103C90004B680468A36114E04B6A93B1D1E90B341B
:103CA00023434C6B23434C6A23438C8A43EA84436B
:103CB0000C6A2343CC6923438C6923431343046870
:103CC000636110BD2DE9F04104460E461746984643
:103CD000069D12E0681C80B1FDF792FAA0EB080087
:103CE000A84200D84DB9042084F84100606C40F02F
:103CF000010060640120BDE8F081206880683040E8
:103D000008B1012000E00020B842E3D10020F2E732
:103D10002DE9F04104460E4600275548006800F0A2
:103D20000300032802D10120BDE8F0815048283863
:103D3000006820F080604E4928390860FDF760FA7D
:103D4000054606E0FDF75CFA401B022801D9032076
:103D5000EAE7474828380068C0F3C0600028F1D17E
:103D600000BF4348006820F47C30216840EA0130FD
:103D70003F490860A088401EC0F30800A168491EA2
:103D80004FF47E4202EA41210843A189491ED20133
:103D900002EA01410843217C491E120202EA016144
:103DA000084333491031086000BF3148001D0068E6
:103DB00020F0C000616908432D49091D08600846CC
:103DC000006820F02000A16908432949091D086006
:103DD0000846006820F0100008602548143000688C
:103DE0004FF6F8718843E16940EAC1002049143177
:103DF00008601F48001D006840F010001C49091DA4
:103E000008602EB90846006840F40020086012E0FF
:103E1000012E08D11648001D006840F48010144996
:103E2000091D086007E01248001D006840F40010FA
:103E30000F49091D08600E482838006840F080606E
:103E40000B4928390860FDF7DBF9054606E0FDF768
:103E5000D7F9401B022801D9032065E70448283818
:103E60000068C0F3C0600028F1D038465CE700006D
:103E7000284402582DE9F04104460E4600275548D3
:103E8000006800F00300032802D10120BDE8F081A2
:103E900050482838006820F080504E492839086082
:103EA000FDF7AEF9054606E0FDF7AAF9401B02282A
:103EB00001D90320EAE7474828380068C0F340707A
:103EC0000028F1D100BF4348006820F07C702188B1
:103ED00040EA01503F490860A088401EC0F3080036
:103EE000A168491E4FF47E4202EA41210843A1899C
:103EF000491ED20102EA01410843217C491E1202F7
:103F000002EA0161084333491831086000BF3148B3
:103F1000001D006820F44060616908432D49091DB7
:103F200008600846006820F40070A1690843294928
:103F3000091D08600846006820F480700860254864
:103F40001C3000684FF6F8718843E16940EAC1000F
:103F500020491C3108601F48001D006840F4807033
:103F60001C49091D08602EB90846006840F480000D
:103F7000086012E0012E08D11648001D006840F4C8
:103F800000001449091D086007E01248001D006880
:103F900040F080700F49091D08600E4828380068FD
:103FA00040F080500B4928390860FDF729F9054693
:103FB00006E0FDF725F9401B022801D9032065E73B
:103FC000044828380068C0F340700028F1D0384613
:103FD0005CE7000028440258704710B5FDF716F959
:103FE00010BD00003448006840F470003249086099
:103FF0003248006800F00F00072806D22F480068FA
:1040000020F00F00C01D2D4908602D48006840F0C9
:1040100001002B4908600020294910310860284818
:10402000006828490840264908602448006800F0D4
:104030000F00072806D92148006820F00F00C01D96
:104040001E49086000201E4918310860091D0860DB
:10405000091D08601C481A49283108601B48091DC1
:1040600008601B48091D08600020091D08601848E9
:10407000091D08600020091D08601548091D086019
:104080000020091D08600E48006820F480200C49BB
:10409000086000200A49603108600E4800686FF32C
:1040A0000F00B0F1005F02D201200B49086043F21B
:1040B000D2000A490860704788ED00E000200052F5
:1040C000004402587FEDF6EA000202020000FF0100
:1040D000800201010010005C088100510040005284
:1040E00010B50248FCF728FA10BD0000B801002402
:1040F00000BFFEE702480068C0F3022070470000DE
:104100000CED00E010B5002804DB0A07130E054A89
:10411000135406E00A07140E034A00F00F031B1F96
:10412000D45410BD00E400E018ED00E000BF70477B
:1041300001490860704700000800002410B50446DB
:104140004FF47A7104FB01F000F002F810BD00009A
:1041500070B5034600224FF0E02675690D4E3668B3
:1041600003FB06F44FF0E026B16910E04FF0E026C3
:10417000B06988420BD0884202D20E1A324402E063
:104180002E1A0E4432440146A24200D300E0EDE76D
:1041900000BF70BD0800002400BF054AD26902F0CC
:1041A0004002002AF9D0C2B2014B9A627047000067
:1041B00000100140002500F06DF8FDF733F80423EE
:1041C00002220521C02000F0ADF94FF4F070FFF796
:1041D000AFFF4FF4E13000F061FAFCF7B2F9FCF701
:1041E000B5F9FCF7B8F945F6BF5141F28730FCF755
:1041F000B7F947E00020FCF7B8F90446022C0FD1CC
:1042000000212148FCF7B6F900212048FCF7B7F956
:1042100004211E48FCF7B3F90220FCF7B5F922E0AF
:10422000032C0FD100211948FCF7A4F900211648EE
:10423000FCF7A5F904211548FCF7A1F90320FCF7C8
:10424000A8F910E0042C0ED104211048FCF792F9D3
:1042500000210D48FCF793F900210C48FCF78FF979
:104260000420FCF796F9681CC0B20546142806D154
:10427000002500BF02210648FCF7ACFF00BFC820A4
:10428000FFF75CFFB6E700004C0200249802002410
:104290000004025810B500BF4C48006800F400301C
:1042A00000B139E000BF00BF00BFBFF34F8F00BFB8
:1042B00000BF00BF00BF00BF00BFBFF36F8F00BFD4
:1042C00000BF00BF00204249086000BF00BF00BF20
:1042D000BFF34F8F00BF00BF00BF00BF00BF00BFD4
:1042E000BFF36F8F00BF00BF00BF3848006840F4C5
:1042F00000303649086000BF00BF00BFBFF34F8FDA
:1043000000BF00BF00BF00BF00BF00BFBFF36F8F83
:1043100000BF00BF00BF00BF00BF2C4B1B6803F4F1
:10432000803303B148E00023284C7034236000BF81
:1043300000BF00BFBFF34F8F00BF00BF00BF231FF0
:104340001868C0F34E3100BFC0F3C90200BF43F686
:10435000E07303EA41134FF0404404EA82742343BC
:104360001B4C1034236000BF00BF131EA2F10102DA
:10437000EDD10B1EA1F10101E6D100BF00BF00BFCE
:10438000BFF34F8F00BF00BF00BF104B1B6843F44B
:1043900080330E4C236000BF00BF00BFBFF34F8FC0
:1043A00000BF00BF00BF00BF00BF00BFBFF36F8FE3
:1043B00000BF00BF00BF00BF05484C30006840F0A0
:1043C000040003494C31086010BD000014ED00E00A
:1043D00050EF00E000B5ADB04C211AA8FCF744F84E
:1043E00038210CA8FCF740F8182106A8FCF73CF887
:1043F000002004900590009001900290039048489E
:104400001A9001201B9020211C9110211D91172131
:104410001E914FF4A0611F9100211AA88161C16112
:104420000162FDF70CF91AA8FDF71EF94FF4807030
:10443000129006200C90002013901490119015906B
:1044400017901890199041F288320CA91AA8FDF71C
:10445000A4F84FF48070129005200C900020139067
:10446000149011904FF080701590002017901890C4
:1044700019900220069007901020089001200990C2
:1044800000200A904FF480000B9041F2883306AA76
:104490000CA91AA8FDF71CF801208DF800000020D7
:1044A0008DF801004FF0104001901B208DF808009E
:1044B00000208DF809008DF80A0003208DF80B000C
:1044C00000208DF80C008DF80D0001208DF80E00F5
:1044D0008DF80F00FCF730FF6846FCF7FFFE042064
:1044E000FCF740FF4FF480701290EB200C904FF4DB
:1044F000406013904FF400500F900020149006205D
:104500001190C005159000201790189019900590F3
:1045100004AA0CA91AA8FDF7FFF82DB000BD0000F1
:1045200000500052F0B59DB004460F4615461E4699
:104530004C210AA8FBF798FF202102A8FBF794FF63
:104540000220FCF795FF00BF002001904F48006853
:1045500020F001004D4908600846006800F00100A5
:1045600001904B48006840F44040494908600846C3
:10457000006800F44040019000BF00BF00BF444805
:10458000006800F40050B0F5005FF8D100BF41486A
:10459000006840F002003F4908600846006800F0EB
:1045A0000200019000BF00BF00BF0020019038480A
:1045B000006840F44040364908600846006800F44E
:1045C000404001903148006840F001002F490860E8
:1045D0000846006800F00100019000BF00BF00BF66
:1045E0002B48006800F40050B0F5005FF8D121209E
:1045F0000A904FF480300B9001201090022013900D
:10460000022114911597169417951896199108215F
:104610001A9100211B911C910AA8FEF74BFD10B1C5
:1046200001201DB0F0BD3F20029003200390002028
:104630000490082005904020069007900001089003
:1046400040200990042102A8FEF744FA0020072127
:10465000114A03C2052010498860C0210E48C1607C
:104660000C2101610221416181618021C161002130
:1046700001624162FDF77AFBFFF7ACFE0020FFF715
:1046800045F9FCF7CDFB0020CBE700002C040058D7
:1046900018480258F44402583000002410B504466B
:1046A00009480A4908600846446000218160C160E9
:1046B000016181610C214161FBF770FF0122044916
:1046C0000248FBF734FF10BD00100140B801002480
:1046D000120000244FF04070E1EE100A7047000015
:1046E0000000010203040102030406070809000098
:1046F000104700080000002430000000D402000829
:104700004047000830000024F8090000F0020008CB
:104710000090D0030090D0030000000000000000D3
:104720000000000000000000100000000101000077
:104730000000000000000000000000000000000079
:0200000490006A
:10000000642900F037800020704700000FB40449D5
:1000100010B503AA029800F049F910BC5DF814FB72
:100020000C00002470B5044685690068C10601D53E
:10003000302600E02026C00707D070BDD4E901219A
:1000400030469047206A401C20626D1EF6D570BD78
:1000500070B5044685690078C00707D170BDD4E942
:10006000012120209047206A401C20626D1EF6D599
:1000700070BD00002DE9F041064600241068752986
:10008000314616A510D0AFF30080002802DA4042B6
:1000900013A507E031688A0701D512A502E04907D8
:1000A00004D511A5012401E0AFF3008000210A224C
:1000B00006F1240709E0B0FBF2FCB0FBF2F302FB0F
:1000C0001C00303078541846491C0028F3D12346D0
:1000D0002A463046BDE8F04100F08FB8000000002D
:1000E0002D0000002B000000200000002DE9F0474B
:1000F0004FF0000A89460446C0F820A02046E16877
:100100008847002876D0252806D0D4E901219047D9
:10011000206A401C2062F1E7E168204600258847FC
:10012000C4F81CA006460027C4F818A02A2E09D03F
:10013000304602F0ACF938B304EB8708303EC8F81B
:10014000186019E059F8041B204604EB87029161FE
:10015000E1688847012F064618D1E069002820DAB7
:1001600025F020051DE0D8F8180000EB800006EB14
:1001700040003038C8F818002046E1688847064635
:1001800002F085F90028EED1012F0AD02E2E08D1D9
:100190002046E16888477F1C0646022F45F020056F
:1001A000C4DBA069002803DA404245F00105A061E4
:1001B000E80701D025F01005B6B1A6F141001928D5
:1001C00002D8203645F400654A463146204625606F
:1001D0004D46FFF715FF58B1012806D0ED1D25F05B
:1001E000070000F1080989E704E005F1040985E743
:1001F00030468AE7206ABDE8F0872DE9F0470D46D2
:1002000099469246044600F124080168880604D500
:10021000E06921F01001216000E00120A84201DD29
:10022000471B00E00027A1697A1902EB0900081AB0
:10023000A0612078C00602D42046FFF7F3FE002616
:1002400008E0D4E901211AF806009047206A401C12
:10025000761C20624E45F4DB2078C0060AD5204685
:10026000FFF7E0FE06E0D4E9012130209047206A44
:10027000401C2062381EA7F10107F4DC07E0D4E936
:10028000012118F805009047206A401C2062281EB2
:10029000A5F10105F3DC2046FFF7DAFE2078000621
:1002A00002D50220BDE8F0870120FBE7074B70B5BF
:1002B0000D467B4400F011F80446284600F020F873
:1002C00010B14FF0FF3070BD204670BDE33E0078A6
:1002D00001694A1C02610878704700B58FB0CDE90A
:1002E00001310021059105497944CDE903101146FA
:1002F0006846FFF7FBFE0FB000BD0000E5FFFFFF03
:10030000007B00F08000704740F6AD7CC0F6000C2A
:10031000604741F2C51CC0F6000C604740F6892CCE
:10032000C0F6000C604740F2AD5CC0F6000C6047C0
:1003300043F6551CC0F6000C604741F2012CC0F694
:10034000000C604743F6352CC0F6000C604741F6C0
:10035000E90CC0F6000C604741F60D1CC0F6000C1D
:10036000604741F63D3CC0F6000C604740F27B3CE4
:10037000C0F6000C604742F6416CC0F6000C6047C6
:1003800042F6656CC0F6000C604740F2694CC0F65E
:10039000000C604740F6C97CC0F6000C604741F293
:1003A000CF3CC0F6000C604741F2A73CC0F6000C01
:1003B000604744F23D1CC0F6000C604741F2E91C66
:1003C000C0F6000C604710B54FF48070FFF79CFF3B
:1003D0004FF40070FFF798FF2020FFF795FF4020B3
:1003E000FFF792FF10BD000010B50446B4F5007F82
:1003F00020D007DC202C2ED0402C3CD0B4F5807FC0
:100400006BD106E0B4F5005F45D0B4F5804F64D100
:1004100052E04FF400713248FFF77BFF48B131489A
:100420000068401C2F490860084601682EA0FFF7AD
:10043000EDFD52E04FF480712948FFF76AFF48B1A3
:1004400028480068401E274908600846016826A021
:10045000FFF7DCFD41E040212948FFF75AFF48B192
:1004600028480068401C274908600846016826A003
:10047000FFF7CCFD31E020212148FFF74AFF48B1CA
:1004800020480068401E1F490860084601681EA0F9
:10049000FFF7BCFD21E04FF480412148FFF739FF11
:1004A00048B120480068401C1E49086008460168A1
:1004B0001DA0FFF7ABFD10E04FF400511848FFF707
:1004C00028FF48B117480068401E164908600846D2
:1004D000016815A0FFF79AFD00BF00BF10BD000026
:1004E00000040258240000240D0A2058D6E1C2F668
:1004F000B3E5BCC6CAFD202533640D0A0000000028
:1005000000080258280000240D0A2059D6E1C2F63E
:10051000B3E5BCC6CAFD202533640D0A0000000007
:10052000001802582C0000240D0A205AD6E1C2F609
:10053000B3E5BCC6CAFD202533640D0A00000000E7
:10054000024600BF92F83C00012801D1022070470A
:10055000012082F83C0000BF022082F83D001068B4
:100560004161012082F83D0000BF002082F83C007C
:1005700000BF00BFEBE72DE9F04104460D461646EB
:10058000002700BF94F83C00012802D10220BDE8FA
:10059000F081012084F83C0000BF0C2E51D005DC16
:1005A0004EB1042E1ED0082E7AD133E0102E60D02A
:1005B000142EF9D175E02946206800F0A5FD2068C9
:1005C000806940F00800216888612068806920F017
:1005D00004002168886120688069296908432168CE
:1005E000886178E02946206800F0E4FD2068806991
:1005F00040F40060216888612068806920F4806090
:100600002168886120688069296940EA01202168A1
:10061000886160E02946206800F026FE2068C069F5
:1006200040F008002168C8612068C06920F004001B
:100630002168C8612068C069296908432168C861C8
:1006400049E02946206800F069FE2068C06940F44E
:1006500000602168C8612068C06920F4806021685A
:10066000C8612068C069296940EA01202168C86121
:1006700031E02946206800F08BFE2068406D40F094
:100680000800216848652068406D20F0040021685A
:1006900048652068406D29690843216848651AE06B
:1006A00017E02946206800F0ABFE2068406D40F45A
:1006B0000060216848652068406D20F480602168F2
:1006C00048652068406D296940EA01202168486535
:1006D00001E0012700BF00BF00BF002084F83C00FC
:1006E00000BF384653E710B504460CB9012010BDD1
:1006F00094F83D0028B9002084F83C00204600F022
:1007000029F8022084F83D00211D206800F084FCB7
:10071000012084F8480000BF84F83E0001213F20FA
:1007200001554020015541200155422001554320EB
:10073000015500BF00BF012084F844004520015549
:10074000462001554720015500BF012084F83D0097
:100750000020CCE77047000070B504460D4615B97F
:1007600094F83E0015E0042D02D13F20005D10E01A
:10077000082D02D14020005D0BE00C2D02D141205C
:10078000005D06E0102D02D14220005D01E0432013
:10079000005D012801D0012070BD1DB9022084F840
:1007A0003E001AE0042D03D102213F20015514E040
:1007B000082D03D10221402001550EE00C2D03D15C
:1007C00002214120015508E0102D03D102214220D1
:1007D000015502E0022143200155012229462068EB
:1007E00000F080FC2B49206888420FD02A492068FD
:1007F00088420BD029492068884207D028492068C0
:10080000884203D027492068884201D1012000E0B6
:10081000002028B12068406C40F400402168486402
:100820001C49206888421BD02068B0F1804F17D047
:100830001D492068884213D01C49206888420FD087
:100840001B49206888420BD013492068884207D092
:1008500018492068884203D010492068884210D186
:1008600020688068144900EA0106062E0FD0B6F50C
:10087000803F0CD02068006840F0010021680860CB
:1008800005E02068006840F0010021680860002051
:1008900082E70000000001400004014000400140E8
:1008A00000440140004801400004004000080040AE
:1008B000000C0040001800400700010030B504465D
:1008C0000D4600222946206800F00CFC2F492068C4
:1008D00088420FD02E49206888420BD02D492068CD
:1008E000884207D02C492068884203D02B492068D1
:1008F000884201D1012000E0002090B100BF2068B3
:10090000006A41F21111084050B92068006A89104C
:10091000084028B92068406C20F4004021684864F1
:1009200000BF00BF2068006A41F21111084050B9B1
:100930002068006A8910084028B92068006820F003
:1009400001002168086000BF1DB9012084F83E0045
:100950001AE0042D03D101213F20015514E0082D98
:1009600003D10121402001550EE00C2D03D10121BE
:100970004120015508E0102D03D1012142200155ED
:1009800002E0012143200155002030BD000001405C
:100990000004014000400140004401400048014083
:1009A0007047704770477047704700002DE9F04767
:1009B00004462068C569206806682068876840F694
:1009C0000F0005EA0009B9F1000F0FD105F0200072
:1009D00060B106F0200010B907F0805030B1606FB0
:1009E00010B12046616F8847BDE8F087B9F1000F6C
:1009F0007ED0FE48384018B9FD4830400028F7D076
:100A000005F0010058B106F4807040B10120216862
:100A10000862D4F8900040F00100C4F8900005F09E
:100A2000020058B107F0010040B1022021680862BD
:100A3000D4F8900040F00400C4F8900005F00400E1
:100A400058B107F0010040B1042021680862D4F8D1
:100A5000900040F00200C4F8900005F0080070B16A
:100A600006F0200010B9E148384040B10820216864
:100A70000862D4F8900040F00800C4F8900005F433
:100A8000006060B106F0806048B14FF400602168FA
:100A90000862D4F8900040F02000C4F89000D4F828
:100AA0009000002852D005F0200050B106F0200040
:100AB00010B907F0805020B1606F10B12046616F0F
:100AC0008847D4F890A02068806800F04000402853
:100AD00002D00AF0280070B3204600F0C7FD20685D
:100AE000806800F04000402826D100BF00BF00E031
:100AF0002DE02168083151E8001F21F040002168F5
:100B0000083141E80002002AF1D100BFD4F880008A
:100B100068B1B848D4F880100865D4F88000FFF7B1
:100B2000FDFB98B1D4F88000016D88470EE02046A7
:100B3000FFF73AFF0AE003E02046FFF735FF05E044
:100B40002046FFF731FF0020C4F890004CE7E06E2C
:100B500001287DD105F01000002879D006F01000A2
:100B60000028FAD01020216808622068806800F010
:100B7000400040286DD1D4F8800000689E4988422A
:100B80006BD0D4F8800000689B491831884264D04B
:100B9000D4F8800000689849303188425DD0D4F89C
:100BA0008000006894494831884256D0D4F88000CB
:100BB00000689149603188424FD0D4F880000068C5
:100BC0008D497831884248D0D4F8800000688A493D
:100BD0009031884241D0D4F8800000688649A8311D
:100BE00088423AD0D4F8800000688449884234D0E2
:100BF000D4F8800000688149183188422DD0D4F89B
:100C0000800000687D493031884226D0D4F88000C9
:100C100000687A49483188421FD0D4F880000068C3
:100C200076496031884218D0D4F880000068734952
:100C30007831884211D0D4F8800000686F49903133
:100C400088420AD0D4F8800000686C49A83102E0DC
:100C5000AEE069E001E0884204D1D4F88000006889
:100C6000406803E0D4F88000006840681FFA80F80C
:100C7000B8F1000F57D0B4F85C00404553DDA4F83C
:100C80005E80D4F88000C069B0F5807F40D000BF9E
:100C900000BF216851E8001F21F48070226842E8FB
:100CA00000010029F5D100BF00BF00BF2168083155
:100CB00051E8001F21F001002168083141E80002DD
:100CC000002AF3D100BF00BF00BF2168083151E8FE
:100CD000001F21F040002168083141E80002002A8D
:100CE000F3D100BF2020C4F88C000020E06600BFD4
:100CF00000BF216851E8001F21F01000226842E87F
:100D000000010029F5D100BFD4F88000FFF70BFBEC
:100D100002202067B4F85C00B4F85E20801A81B22B
:100D20002046FFF73DFE5FE634F85C0F6188401A0D
:100D30001FFA80F860885C3CC8B3B8F1000F36D069
:100D400000BF00BF216851E8001F21F490702268A5
:100D500042E800010029F5D100BF00BF00BF2168B3
:100D6000083151E8001F214AD24301EA02002168FC
:100D7000083141E80002002AF1D100BF2020C4F868
:100D80008C000020E066606700BF00BF216851E86A
:100D9000001F21F01000226842E800010029F5D16F
:100DA00000BF0220206741462046FFF7F9FD1BE601
:100DB00005F4801050B107F4800038B14FF4801072
:100DC000216808622046FFF7EEFD0DE605F0800081
:100DD000B0B106F0800010B907F4000080B1A06F38
:100DE00010B12046A16F8847FEE500000100001009
:100DF000200100045316009010000240100402402D
:100E000005F0400030B106F0400018B1204600F077
:100E100063FCE9E505F4000030B106F0804018B14C
:100E20002046FFF7BFFDDFE505F0807030B106F02A
:100E3000004018B12046FFF7B4FDD5E500BFD3E56B
:100E400010B504460CB9012010BDA06900B100E046
:100E500000BFD4F8880028B9002084F88400204618
:100E6000FFF766FA2420C4F888002068006820F0A4
:100E7000010021680860204600F044FF012800D1ED
:100E8000E2E7A06A10B1204600F0F2FA206840685C
:100E900020F49040216848602068806820F02A0093
:100EA000216888602068006840F0010021680860BF
:100EB000204600F059FBC7E770B504460D461646BC
:100EC000D4F88C00202821D105B10EB9012070BDC5
:100ED0000020E0660E492068884211D020684068F2
:100EE00000F4000060B100BF00BF216851E8001F9E
:100EF00041F08060226842E800010029F5D100BF7E
:100F000032462946204601F0C3F9E0E70220DEE739
:100F1000000C00587047000000201C49096809694E
:100F200001F0010189B31A490968B1F5807F08D938
:100F300017490968A1F58071154A11604FF4807056
:100F400007E01349097821B1114908780021104AB6
:100F5000116078B1411E0F4A116301210B4A1268DA
:100F600051610A490968096841F00101074A12689C
:100F7000116005E00749096821F00101054A116087
:100F80006FF00101014A1268116170479802002454
:100F9000200000240040014000201C490968096924
:100FA00001F0010189B31A490968B1F5807F08D9B8
:100FB00017490968A1F58071154A11604FF48070D6
:100FC00007E01349097821B1114908780021104A36
:100FD000116078B1411E0F4A116301210B4A12685A
:100FE00051610A490968096841F00101074A12681C
:100FF000116005E00749096821F00101054A116007
:101000006FF00101014A1268116170474C0200241F
:10101000200000240000014010B50268294B9842CE
:101020000ED0B0F1804F0BD0274B984208D0274B01
:10103000984205D0264B984202D0264B984203D1C5
:1010400022F070024B681A431E4B984217D0B0F141
:10105000804F14D01C4B984211D01C4B98420ED09C
:101060001B4B98420BD01B4B984208D01A4B98420E
:1010700005D01A4B984202D0194B984203D122F462
:101080004072CB681A4322F080034C6943EA0402A1
:1010900002608B68C3620B6883620A4B98420BD074
:1010A0000C4B984208D00C4B984205D00B4B984201
:1010B00002D00B4B984201D10B69036301234361BA
:1010C00010BD000000000140000400400008004086
:1010D000000C004000040140004001400044014079
:1010E0000048014030B501F01F05012404FA05F362
:1010F000046A9C430462046A01F01F0502FA05F5C4
:101100002C43046230BD000030B5056A25F00105AE
:101110000562026A43688469204D2C4024F0030470
:101120000D682C4322F002028D682A431C4DA84210
:1011300000D10FE01B4DA84200D10BE01A4DA84290
:1011400000D107E0194DA84200D103E0184DA84294
:1011500006D100BF22F00802CD682A4322F0040223
:101160000F4DA8420BD00F4DA84208D00E4DA842FB
:1011700005D00E4DA84202D00D4DA84207D123F450
:10118000807323F400734D692B438D692B434360B7
:1011900084614D684563026230BD00008FFFFEFF31
:1011A00000000140000401400040014000440140B3
:1011B0000048014030B5056A25F010050562026A55
:1011C00043688469224D2C4024F440740D6844EA3D
:1011D000052422F020028D6842EA05121D4DA84226
:1011E00000D10FE01C4DA84200D10BE01B4DA842DE
:1011F00000D100BF1A4DA84200D100BF194DA8422E
:1012000007D106E022F08002CD6842EA051222F002
:101210004002104DA8420BD00F4DA84208D00F4DF0
:10122000A84205D00E4DA84202D00E4DA84209D1C9
:1012300023F4806323F400634D6943EA85038D69D9
:1012400043EA8503436084614D688563026230BD73
:10125000FF8FFFFE000001400004014000400140FC
:10126000004401400048014030B5056A25F480750E
:101270000562026A4368C469224D2C4024F00304CD
:101280000D682C4322F400728D6842EA05221E4D3F
:10129000A84200D10FE01D4DA84200D10BE01C4D2B
:1012A000A84200D100BF1B4DA84200D100BF1A4D7B
:1012B000A84207D106E022F40062CD6842EA052286
:1012C00022F48062104DA8420BD0104DA84208D0E5
:1012D0000F4DA84205D00F4DA84202D00E4DA84296
:1012E00009D123F4805323F400534D6943EA0513D5
:1012F0008D6943EA05134360C4614D68C5630262AA
:1013000030BD00008FFFFEFF0000014000040140DF
:1013100000400140004401400048014030B5056AEA
:1013200025F480550562036A4468C269124D2A405B
:1013300022F440720D6842EA052223F400538D68BE
:1013400043EA05330D4DA8420BD00D4DA84208D0FD
:101350000C4DA84205D00C4DA84202D00B4DA8421E
:1013600004D124F480444D6944EA85144460C26188
:101370004D680564036230BDFF8FFFFE0000014031
:101380000004014000400140004401400048014089
